:1000000006C1000022C1000020C100001EC1000086
:100010001CC100001AC1000018C1000016C1000078
:1000200014C1000012C1000010C100000EC1000088
:100030000CC100000C94C40A08C1000006C10000F5
:1000400004C1000002C1000000C10000FEC00000A9
:10005000FCC00000FAC00000F8C00000F6C00000BC
:10006000F4C00000F2C00000F0C00000EEC00000CC
:10007000ECC00000EAC00000E8C00000E6C00000DC
:10008000E4C00000E2C00000E0C00000A706D10507
:10009000D105D105D105D105D105D105D105D105B0
:1000A000D105D105D105D105D105D105D105D105A0
:1000B000D105D105D105D105D105D105D105D10590
:1000C000D105D105D105D105D105D105D105D10580
:1000D000D105D105D105D105D105D105D105D10570
:1000E000D105D105D105D105D105D105D105D10560
:1000F000D105D105D105D105D105D105D105D10550
:10010000D105D105D105D105D105D105D105D1053F
:10011000D105D105D105D105D105D105D105D1052F
:10012000D105D105D105D105D105AA069306D10582
:10013000D105D105D1059B069706D105D105D1057D
:10014000D105D105D105D105D105D105D105D105FF
:10015000D105D105D105D105D105D105D105D105EF
:10016000D105D1059E0688067E0674066906D1056E
:100170006506D105D105D105D105D105D1053706D3
:100180003706D105D105D105D105D105D105D10558
:10019000D10533062F062B06270623061F061B064E
:1001A000D105D105D105D105D105D105D105D1059F
:1001B000D105D105D105D105D105D105D105D1058F
:1001C000D105D105D105D105D105D10513060C0600
:1001D0000C060C06D1050C06D1050C060C06D10543
:1001E000D105D105D1050C060C060C060C06D1056F
:1001F000D105D105D105D105D105D105D105D1054F
:10020000D105D105D105D105D1050506F805112483
:100210001FBECFEFD0E4DEBFCDBF12E0A0E0B1E063
:10022000E0E8F6E100E00BBF02C007900D92A232B9
:10023000B107D9F72FE3A2E2B2E001C01D92A43BBF
:10024000B207E1F703D00C943E0BDACE88EF85B904
:1002500028E124B93FEF38B93BB9379917C090E48A
:1002600097B946982FE181EA97E02150804090406D
:10027000E1F700C00000469A2FE181EA97E02150A3
:1002800080409040E1F700C00000EBCF48E0409391
:10029000C1004093C90067E270E07093C5006093AD
:1002A000C4007093CD006093CC00509181005960E0
:1002B0005093810070916F00726070936F00A7E897
:1002C000B3E1B0938900A093880079D67894CFEFFA
:1002D00003C0199912C086D1E9D3882311F0189B65
:1002E00015C01A9BF6CFF8942C9800C0000080B17E
:1002F0002C9A7894DED3199BEECFF8942C9800C0FA
:10030000000080B12C9A78946FD6E5CF0E941B0A2A
:10031000F894C1B982B92B9800C000002B9A11B88B
:100320007894DFCF9F92AF92BF92CF92DF92EF92FD
:10033000FF920F931F93CF93DF93282F883F08F0EE
:100340004DC087FD71C090912302992309F446C0E6
:10035000E091240281E08E0F80932402F0E0EE5DB4
:10036000FD4F2383891708F453C090903A069920D3
:1003700009F466C020912202122F107F103909F46F
:10038000DDC0103B09F47FC0A0903E3EB0903F3EE0
:10039000E0913C3EF0913D3EC2E2D2E0292F30E0B8
:1003A0002E5D3D4FC12C98E3D92ECF010196B601A9
:1003B0000E94210B8A159B0529F0E45CF94FFB8014
:1003C000F082FC012196C217D30779F7F0933D3EE6
:1003D000E0933C3E91E0909324021AC020932D02BA
:1003E000E0913C3EF0913D3ECF01019660E078E324
:1003F0000E94210B40913E3E50913F3E841795074D
:1004000039F0E45CF94F208390933D3E80933C3E6D
:10041000DF91CF911F910F91FF90EF90DF90CF90E0
:10042000BF90AF909F900895809322021092240273
:10043000E82FF0E0EE5DFE4F90819093230285CF90
:1004400000913E3E10913F3EE0913C3EF0913D3E9A
:10045000C2E2D2E0292F30E02E5D3D4FE12C88E34F
:10046000F82ECF010196B7010E94210B801791074A
:1004700029F0E45CF94F4B814083FC012196C217BF
:10048000D30779F7A3CF309126023B57353008F0D8
:100490007BCF2F7050910001507F522B5093000161
:1004A000C22ED12C7601EE0CFF1CCC0CDD1CCC0C2A
:1004B000DD1CCC0CDD1CF701EC0DFD1DEC5EF04CE1
:1004C0004081442399F100913E3E10913F3EC091FE
:1004D0003C3ED0913D3E6AE0269FD00111249D0113
:1004E0002A5E304C912CA12C58E3B52EF901719164
:1004F0009F0170930101E0E0F1E0CE010196B501AA
:100500000E94210B8017910729F0C45CD94FB0815C
:10051000B883EC01319681E0E330F80771F79394EA
:100520009412E4CFD0933D3EC0933C3EF701EC0DD6
:10053000FD1DEC5EF04C108211824CCFB090270272
:10054000BB2051F12F7030E06901CC0CDD1C220F73
:10055000331F220F331F220F331FD601A20FB31FE9
:10056000AC5EB04C1196FC91119781E08F0F119603
:100570008C931197ED01CF0FD11D109126021A8394
:10058000883069F12C0D3D1DF901EC5EF04CD081F5
:10059000D83010F4DF5FD08300913E3E10913F3E93
:1005A000E0913C3EF0913D3EC2E2D2E0292F30E0A6
:1005B0002E5D3D4FE12CA8E3FA2ECF010196B70145
:1005C0000E94210B8017910729F0E45CF94FDB8032
:1005D000D082FC0121962C173D0779F7F7CE1196B2
:1005E0001C92D0CFCF9320913C3E30913D3E8091E4
:1005F0003E3E90913F3E2817390709F457C080D7F7
:10060000811154C030913806311152C080913E3E64
:1006100090913F3EFC01E45CF94FC081019660E09F
:1006200078E30E94210B90933F3E80933E3E4091A1
:100630003906403F09F45CC0C7FD48C08C2FCF91FC
:1006400047C787EF45D72091350630913606C90157
:1006500001969093360680933506F901EE5DFD4FC5
:1006600057EF538B50933906709138067723F1F08A
:1006700020913706211108C0B0913A02BF3709F422
:100680006CC0B03109F457C030E0322F2227330F4D
:10069000330F820F931F969587950296880F991FA7
:1006A000880F991F9093133F8093123FCF91089525
:1006B000A091123FB091133FAB2B09F4A7CF8FE36A
:1006C00096E00197F1F700C00000F0CFC093390623
:1006D000C03F09F0B3CF80EFFBD661E070E07093CC
:1006E000360660933506C093350210923706DECF8A
:1006F000C7FDA7CF809135069091360681159440AD
:1007000049F41092360610923506909137069F5F95
:10071000909337068C2FDCD6E0913506F0913606A3
:100720009F012F5F3F4F3093360620933506EE5DD5
:10073000FD4FC38BBBCFF0913B02F111A5CF3091A0
:100740003C02343089F0313009F09ECFA8E7B0E0A8
:10075000B093133FA093123FA9CF68E874E0709361
:10076000133F6093123FA2CF44E452E05093133FF3
:100770004093123F9BCF80913B060895EF92FF92EA
:100780001F93CF93DF931092133F1092123F8093E9
:10079000380610922202109239061092240210920A
:1007A000230281E0611101C080E080933A0611E0EC
:1007B00010933B0610923F3E10923E3E10923D3EFB
:1007C00010923C3EC3E0D1E081E2E82E81E0F82EB9
:1007D000199188D6812F7CD6EC16FD06C9F7D0EB8F
:1007E00081D68D2F75D67ED68BE772D67BD680E0EC
:1007F0006FD6DF5FD03CA1F7E4E1FFE31082118206
:100800003A968FE3E43BF807C9F7DF91CF911F9148
:10081000FF90EF90089581E09091433E911101C0C7
:1008200080E08093453E82E09DD61092F23E109289
:10083000EC3E1092ED3E1092E63E1092E73E109292
:10084000E83E1092EA3E1092EF3E1092F03E2FEFFB
:100850002093F93E1092F83E1092FA3E4FEF5FEF70
:100860005093FC3E4093FB3E1092F33E1092F53EB7
:100870001092F43E1092E93E34E63093043F3093F8
:10088000033F5EE15093023F5093013F68E2609363
:10089000063F6093053F1092073F10920A3F7CE3AA
:1008A0007093083F1092093F1092673E1092663E87
:1008B0001092FE3E1092FD3E1092D93E1092D83E0C
:1008C0001092E53EE3E4FEE312AA16A215A23E96BC
:1008D0008EE3E33BF807C1F708959091673E9111CD
:1008E0001BC02091433E222319F031E03093F03EAB
:1008F0004091663EE92FE40F403218F04052409399
:10090000663EE03208F0E0529F5F9093673EF0E071
:10091000ED5BF14C83830895903250F308958091FC
:10092000DA3E8C3F91F01092E33E20EF30E03093BE
:10093000D93E2093D83E4091FD3E5091FE3E5260FC
:100940005093FE3E4093FD3E08951092DA3E109281
:10095000E63E6091FD3E7091FE3E7D7F7093FE3ECF
:100960006093FD3E3091FA3E3111EECF706170938D
:10097000FE3E6093FD3E0895CF92DF92EF92FF928C
:100980000F931F93CF93DF93D82FE82EF12CEE0C0B
:10099000FF1C8701000F111F000F111F000F111FF7
:1009A0000E191F09F801ED5BF14C82A9813009F4A1
:1009B0005CC0833099F4C0A8CC2081F0C0E08F01E6
:1009C0006F0180E3C80ED11CF801EC0FF11D87A167
:1009D000A9DCCF5FF6012081C217B0F3D090FA3EB8
:1009E0008D2D90E00D2E02C0959587950A94E2F723
:1009F00080FD18C0D1100DC0E090E63EE11009C0A6
:100A00004091FD3E5091FE3E50615093FE3E40931A
:100A1000FD3EDF91CF911F910F91FF90EF90DF90FE
:100A2000CF900895F701EE0FFF1FEE0FFF1FEE0F9F
:100A3000FF1FEE19FF09ED5BF14C10AA12AAA0EFFF
:100A4000B0E0B6A3A5A381E090E002C0880F991F93
:100A5000DA95E2F7C091FD3ED091FE3E8C2B9D2BA6
:100A60009093FE3E8093FD3ED4CF87A58C3F09F046
:100A7000B5CF58DC41E050E00D2E02C0440F551FA9
:100A80000A94E2F7D42ED0941091FA3ED122D0925B
:100A9000FA3E409550956091FD3E7091FE3E462392
:100AA00057235093FE3E4093FD3E9ACF8091673E80
:100AB0000895CF93C82F8091EB3E8823B9F0A09181
:100AC000F63EB091F73EAB2B21F4CF3359F0CF3F38
:100AD00049F08C2F90E001969093F73E8093F63E7C
:100AE000CF91089581E03ED51092EB3EC03348F59A
:100AF0003C2F3370323009F46EC0333009F459C0E2
:100B0000313011F48CEF0EDCCC70C43009F454C0D9
:100B1000C83009F046C041E04093EA3E80E022D56B
:100B20005091033F6091013F569FB001112480E92D
:100B300092EE87D580E0F8D41092673E1092663E20
:100B400030C020E62C0F2830C8F48C2F8770482F37
:100B500050E02091F93E30E0D90102C0B595A7954B
:100B60008A95E2F7A0FF1DC02091E93E222309F4F7
:100B7000F4C01092E93E8EEFCF91AFCE30E33C0F40
:100B8000383060F59091FF3E9093003FBC2FB770D6
:100B9000B093FF3EF1E0F093EC3E1092ED3EF09307
:100BA000EE3E7091E93E772331F31092E93ECF910A
:100BB00008958BEFB7DBA8CF80E0D4D41092EA3E43
:100BC000C0EB8C2FAFDB8BE7ADDB80E0ABDBCF5F27
:100BD000CF3BB9F7E6CF8AEFA5DB96CF8C2F90E01D
:100BE000FC01FF97E13CF105E0F6EA5BFF4F3DC5F4
:100BF0006CE670E081E098D441E04093EB3E0BDE80
:100C00005091453E5111CDCF6BCF6EEF70E0709398
:100C1000F53E6093F43EC5CF8C2F90E09093F53E67
:100C20008093F43EBECF1092EC3E71E07093ED3EA7
:100C30007093EE3EB6CF90E39093013FB2CFBAE20D
:100C4000B093013FAECFF4E2F093013FAACFCEE1E3
:100C5000C093013FA6CF88E18093013FA2CFA2E1DC
:100C6000A093013F9ECF2CE02093013F9ACFC0EB91
:100C70008C2F58DB8BE756DB80E054DBCF5FCF3B1C
:100C8000B9F7E3E4FEE316A215A212AA3E967EE3AC
:100C9000E33BF707C1F71092D93E1092D83E10926D
:100CA000E53E3091E83E3093E63E311102C01092AD
:100CB000E73E4091F83E4093FA3E1092FE3E10927D
:100CC000FD3E51E05093F03E6CCF68E26093053FEB
:100CD00068CF7091E93E772309F45FC01092E93E36
:100CE0008091033FCF91F9CDB091E93EBB2309F448
:100CF0005DC01092E93E8091443EF4CF8091E93E80
:100D0000882309F45CC01092E93E81E0CF91E5CDE3
:100D10002091443E25FF31C03091E93E311129CF69
:100D200085E1DBDD3ECF71E07093E83E3ACF61E0D4
:100D300060930A3F36CF10920A3F33CF4091E93E8D
:100D4000442321F11092E93E80E0CF91C6CD10926C
:100D5000453E27CF1092E83E24CF440F551FFA019D
:100D6000EE0FFF1FEE0FFF1FEE0FFF1FE41BF50B33
:100D7000ED5BF14C85A1B1DD14CFC091E93ECC23F0
:100D800029F11092E93E85E1CF91A7CD8EEFA5DD47
:100D90005091E93E511109CFD7CF8EEF9EDD909152
:100DA000E93E911102CF8091033F9CCF8EEF95DDFC
:100DB000F091E93EF111F9CE8091443E93CF8EEF50
:100DC0008CDDA091E93EA111F0CE9FCF8EEF85DDA5
:100DD000E091E93EE111E9CED6CFCF93DF931092B7
:100DE000F23E8091F13E882339F01092F13E20913D
:100DF000E73E222339F193DD1092F03E3091EA3E36
:100E00003323E9F06091FD3E7091FE3E611571055E
:100E1000B1F020E030E0E1E0F0E0822FEF01022EBF
:100E200002C0CC0FDD1F0A94E2F7AE014623572320
:100E3000452B61F42F5F3F4F2131310571F7DF9171
:100E4000CF9108958091FF3E97DDD6CF9091E93EF6
:100E5000992369F01092E93EC095D095C623D72317
:100E6000D093FE3EC093FD3EDF91CF910895805117
:100E700034DD6091FD3E7091FE3EEECF8091F13EFB
:100E8000811105C02091F23E21110895A6CF31E0D5
:100E90003093F23E61E070E082E046C30F931F930F
:100EA000CF93DF938091453E882309F463C000917E
:100EB000F03E011153C003E41EE3C0E0D0E02091F6
:100EC000FA3E822F90E00C2E02C0959587950A94E9
:100ED000E2F780FF0AC0F801A5A1B6A11197B6A359
:100EE000A5A31A161B060CF053C02196025F1F4FD4
:100EF000C830D10521F71091E63E112369F0C09169
:100F0000D83ED091D93E2197D093D93EC093D83EB8
:100F10001C161D060CF041C040910A3F4423A1F06D
:100F20005091093F5F5F5093093F9091083F5917D7
:100F300058F01092093F6091FD3E7091FE3E706244
:100F40007093FE3E6093FD3E7091F03E711106C0BD
:100F50008091FD3E9091FE3E892BE9F480E002D322
:100F6000B091033FD091013FBD9FB00111246115A5
:100F7000710529F4DF91CF911F910F91089580E9B8
:100F800092EE5FD380E0DF91CF911F910F91CCC2A1
:100F90008C2FF2DCAACF21DFE1CFC1DCBDCF1092D4
:100FA000EB3E8091F63E9091F73E009709F408954C
:100FB00081507FDD1092F73E1092F63E0895DBD20D
:100FC0008091443E682F60748078D8DBD4DB811137
:100FD00001C008951092673E1092663E1092453E01
:100FE00081E08093433E17CCCF939091453E992367
:100FF00009F441C02091F43E3091F53E2C3E31057C
:1010000009F496C0C82F2D3E3105F0F02E3E310573
:1010100009F473C008F464C02F3E310509F474C0AC
:101020002E3F310509F063C01092F53E1092F43E58
:101030008093443EC4DF7091E93E772309F4BDC03C
:101040001092E93ECF910895203E310509F469C020
:10105000A0F0213E310509F44AC0273E310509F0D0
:1010600046C01092F53E1092F43E682F6695669544
:101070006093083FE7CFCF9155C9232BC1F58091ED
:10108000EC3E81115CC03091ED3E332309F498C0F1
:10109000C73F09F465C14091EE3E442309F400C105
:1010A0001092EE3E1092423EC23F09F455C108F440
:1010B0000FC1C33F09F44CC1C63F09F009C121E08B
:1010C0002093413E8C2F2ED98091423E8F5F80939A
:1010D000423E9091413E8913B5CF1092ED3EB2CF82
:1010E0001092F53E1092F43E8093F93EABCF1092F1
:1010F000F53E1092F43ECF9108951092F53E109275
:10110000F43E8093FB3E9ECF1092F53E1092F43E4B
:101110008091FB3E90E09C2B9093FC3E8093FB3EA5
:1011200091CF1092F53E1092F43E8093033F8ACF08
:101130001092F53E1092F43E8093F83E83CFA0913A
:10114000EE3EAA2389F11092EE3E1092423E3C2FD1
:10115000307F303B09F4AFC088F0303D09F454C013
:1011600008F44FC0303E09F4A6C0303F81F410921D
:10117000EC3EC091003FC093FF3E64CF303909F48C
:101180009AC0303A09F497C0303809F494C061E04D
:101190006093423E7091FF3EBEE07B9FF0011124C0
:1011A000ED5BF14C87A1BED8A091423E3091413E0B
:1011B000A317B0F13A1346CFDACF8EEFCF918DCB94
:1011C0004091E73E4423B1F19091F33E913009F410
:1011D00099C0923009F4B1C0911134CF1092E33E1E
:1011E000C03F08F0C6C081E08093F33EC111C6C085
:1011F0008093F13E8C2F90E09093D93E8093D83E1F
:1012000021CF303C09F0C3CF5091FF3E4EE0549FB8
:10121000F0011124ED5BF14CC7A322E02093413E85
:101220008C2F80D8A091423EAF5FA093423E309178
:10123000413EC0CFA091F33EAA2309F44CC0A13097
:1012400009F000CF2091FF3E30E0A901440F551F67
:10125000FA01EE0FFF1FEE0FFF1FEE0FFF1FE41B43
:10126000F50BED5BF14C60A991E0960F90AB90937C
:10127000403E913009F485C0FA01EE0FFF1FEE0FDA
:10128000FF1FEE0FFF1FE41BF50BED5BF14CE90FA9
:10129000F11DC6A35091413E5913D4CECF91EECD4E
:1012A0009091413E992309F40DCF8091423E8917D8
:1012B00008F011CF07CFF091FF3E8EE0F89FF001CC
:1012C0001124ED5BF14CC7A393E09093413EA8CF6E
:1012D0001092413EF7CEC03F08F04BC041E0409332
:1012E000F33EC11143C04093F13E2091FF3EFEE02A
:1012F0002F9FF0011124ED5BF14C8C2F90E096A311
:1013000085A3A0CE38E03C0F323008F451C064E031
:101310006093E53E7091E33EE72FF0E0E652F14C3A
:10132000C0837F5F7093E33EBC2FB07FB03E09F077
:10133000B5CF52E05093F33E85CEA091E33EEA2F25
:10134000F0E0E652F14CC083AF5FA093E33EA6CF3E
:10135000F2E0F093413EB6CEE3E0E093413EB2CE00
:1013600087EF0E9492011092ED3E6CCE1092F13EFA
:10137000BCCFCFEFC093F33ECF9180CD1092F13E22
:1013800039CF7C2F707F703B89F150F1703DF1F1C6
:10139000D8F1703E59F1703F71F4C83F08F445C070
:1013A000A2ABC7A7A093413EC03F08F073CF64CF64
:1013B0001092E53EAFCF6E5F6093403EBEE0B29FBD
:1013C000F001B39FF00D1124ED5BF14C60AB23E015
:1013D00022ABF1A9F093413E613031F3962F4CCF0F
:1013E000703921F0703A11F0703829F77EE0729F61
:1013F000F001739FF00D1124ED5BF14CB3E0B2AB43
:10140000B1ABB093413ED0CF703CA9F6AEE0A29F05
:10141000F001A39FF00D1124ED5BF14C33E032ABF2
:1014200062E061AB6093413EBFCF82E082ABC7A771
:10143000A093413EB9CFCF938091663E803208F0B1
:101440008052E82FF0E0ED5BF14CC3818F5F809319
:10145000663E2091673E21502093673E3091433E87
:101460003323A1F040E14C0F483098F46C2F6770A3
:101470006093FF3E1092F33E1092E73E74E07C0FC3
:10148000733020F4BFEFB093F33EF8DC8C2FCF9194
:101490000895C93F99F71092F33E51E05093E73E0B
:1014A0009091E53E911105C01092E53E8C2FCF91B1
:1014B00008955093E93E8091DA3EFBDAA091F43E24
:1014C000B091F53EAB2B81F38091DB3E8DDDECCF0F
:1014D0009091443E94FD03C08093C600089580938C
:1014E000CE0008958091443E84FF05C03091C8002D
:1014F00035FFFCCF08952091C00025FFFCCF089553
:101500008091443E84FD08C02091C00025FB9927AE
:1015100090F981E0892708953091C80035FB442770
:1015200040F981E0842708950F931F93CF93C82F2C
:101530008B01672B31F4813081F088F0823009F41F
:101540004CDCEC2FF0E0EE0FFF1FE45FF04C11835A
:101550000083CF911F910F91089521DDF2CF01E01B
:1015600010E0EFCFE82FF0E0EE0FFF1FE45FF04C4C
:10157000118210820895ECE0FFE311821082138241
:1015800012821582148208951F920F920FB60F9245
:1015900011240BB60F922F933F934F935F936F934A
:1015A0007F938F939F93AF93BF93EF93FF9380911C
:1015B000123F9091133F009729F001979093133FAA
:1015C0008093123FA0910C3FB0910D3F109739F0DE
:1015D0001197B0930D3FA0930C3FAB2B71F1E091AD
:1015E0000E3FF0910F3F309739F03197F0930F3F56
:1015F000E0930E3FEF2B19F18091103F9091113F36
:10160000009741F001979093113F8093103F892BF1
:1016100009F4E3DBFF91EF91BF91AF919F918F911F
:101620007F916F915F914F913F912F910F900BBEE2
:101630000F900FBE0F901F90189530DCD0CFAFDC0D
:10164000DBCFAA1BBB1B51E107C0AA1FBB1FA617FC
:10165000B70710F0A61BB70B881F991F5A95A9F75B
:1016600080959095BC01CD010895EE0FFF1F0024D9
:10167000001C0BBE0790F691E02D0994F894FFCF63
:10168000800000F04110161220000020202A2A2A93
:1016900020486172644D5055202A2A2A20202013A8
:1016A000F700000000000000000000000000000043
:1016B000000000000000000000000000000000002A
:1016C000000000000000000000000000000000001A
:1016D000000000000000000000000000000000000A
:1016E00000000000000000000000000000000000FA
:1016F00000000000000000000000000000000000EA
:1017000000000000000000000000000000000000D9
:1017100000000000000000000000000000000000C9
:10172000000003030303030303030303030303038F
:101730000303030303030303030303030303030379
:101740000303030303030303030303030303030369
:101750000303030303030303030303030303030359
:101760000303020202020202020202020202020257
:101770000202020202020202020202020202020249
:10178000020203030303030303030303030303032B
:101790000303000203020000010001000101010037
:0217A000010046
:00000001FF
