:1000000006C1000022C1000020C100001EC1000086
:100010001CC100001AC1000018C1000016C1000078
:1000200014C1000012C1000010C100000EC1000088
:100030000CC100000C94B40B08C1000006C1000004
:1000400004C1000002C1000000C10000FEC00000A9
:10005000FCC00000FAC00000F8C00000F6C00000BC
:10006000F4C00000F2C00000F0C00000EEC00000CC
:10007000ECC00000EAC00000E8C00000E6C00000DC
:10008000E4C00000E2C00000E0C000003D076106DF
:100090006106610661066106610661066106610628
:1000A0006106610661066106610661066106610618
:1000B0006106610661066106610661066106610608
:1000C00061066106610661066106610661066106F8
:1000D00061066106610661066106610661066106E8
:1000E00061066106610661066106610661066106D8
:1000F00061066106610661066106610661066106C8
:1001000061066106610661066106610661066106B7
:1001100061066106610661066106610661066106A7
:1001200061066106610661066106400729076106EE
:1001300061066106610631072D07610661066106E9
:100140006106610661066106610661066106610677
:100150006106610661066106610661066106610667
:100160006106610634071A0710070607FB066106D9
:10017000F706610661066106610661066106C7064B
:10018000C7066106610661066106610661066106D1
:100190006106C306BF06BB06B706B306AF06AB06CD
:1001A0006106610661066106610661066106610617
:1001B0006106610661066106610661066106610607
:1001C000610661066106610661066106A3069C067A
:1001D0009C069C0661069C0661069C069C066106C0
:1001E0006106610661069C069C069C069C066106EB
:1001F00061066106610661066106610661066106C7
:10020000610661066106610661069506880611248D
:100210001FBECFEFD0E4DEBFCDBF12E0A0E0B1E063
:10022000EAE5F8E100E00BBF02C007900D92A232B0
:10023000B107D9F72FE2A2E2B2E001C01D92AD3BB7
:10024000B207E1F703D00C942B0CDACE88EF85B916
:1002500028E124B93FEF38B93BB948E04093C100E9
:1002600067E270E07093C5006093C4005091810014
:1002700059605093810070916F00726070936F00AD
:10028000A7E8B3E1B0938900A093880078941FD7C2
:10029000CFEF08C0199912C08ED4882311F0189B93
:1002A00016C098D21A9BF6CFF8942C9800C0000084
:1002B00080B12C9A789482D4199BEECFF8942C9824
:1002C00000C0000080B12C9A789416D7E5CF0E9428
:1002D0001B0BF894C1B982B92B9800C000002B9A6F
:1002E00011B87894DECF8F929F92AF92BF92CF9247
:1002F000DF92EF92FF920F931F93CF93DF93182F0C
:10030000883F48F1809330028090412E9090422E99
:10031000C401019660E078E20E94110C6091432EC6
:100320007091442E8617970709F470C0F401EF5BB3
:10033000F94F10839093422E8093412EDF91CF91FD
:100340001F910F91FF90EF90DF90CF90BF90AF90F3
:100350009F908F9008952091220230912302203F98
:10036000310509F455C087FDB0C040912402509179
:1003700025024115510511F3809026029090270225
:10038000C40101969093270280932602E401CE5D7A
:10039000DD4F1E838417950788F290903F069920C1
:1003A00009F4B8C02091220230912302C901807F54
:1003B00099278039910509F49AC1803B910509F488
:1003C000D9C0C090432ED090442EA090412EB09022
:1003D000422EE8E2F2E0485D5D4F4A01C0E0D8E21B
:1003E0000BC0D501AF5BB94FF080FC925C01319638
:1003F000E815F90509F4B3C0C5010196BE010E94D4
:10040000110C8C159D0569F70000F1CF000096CF07
:1004100087FD1BC1E0903806F0903906D701119690
:10042000B0933906A0933806F701EE5DFD4F868B39
:10043000A11524E0B20709F081CFA090432EB0901F
:10044000442EC090412ED090422EE8E3F2E020E00E
:1004500038E20CC0E601CF5BD94F908098826C01E6
:10046000319686E0E833F80709F4DDC0C60101964D
:10047000B9010E94110C8A159B0561F70000F0CFAD
:10048000D093422EC093412E4423F9F080913A0636
:1004900090913B06009741F470913D027F3709F43B
:1004A00073C1703109F477C1982F8827990F990F7C
:1004B000880D991D969587950296880F991F880F2C
:1004C000991F90933D0680933C06812F90E0909376
:1004D0002302809322021092270210922602EC013E
:1004E000CE5DDE4F488150E05093250240932402B8
:1004F000803F910509F03DCF90EF90933802E1E005
:10050000F0E0F0933906E093380610923B06109223
:100510003A062FCF0091432E1091442EA090412EE9
:10052000B090422EE8E2F2E0BA01685D7D4F7B01B7
:1005300020E038E20AC0D501AF5BB94FD080DC9231
:100540005C013196EE15FF0551F0C5010196B90128
:100550000E94110C0817190771F70000F2CFB09232
:10056000422EA092412E01E010E01093270200934A
:100570002602E4CED0912902DB57D53008F021CFF6
:100580002F703327F0910001F07FF22BF0930001E0
:100590008901000F111F220F331F220F331F220F5B
:1005A000331F020F131FF801E35EF04D4F01C080AF
:1005B000CC20A9F1E090432EF090442ED12C209134
:1005C000412E3091422E5F01F2E0AF0EB11C00E0EF
:1005D00010E0C0E0D8E2F50151915F0150930101B4
:1005E000E0E0F1E0C9010196BE010E94110CE8169D
:1005F000F90609F47AC0D901AF5BB94F30813C9359
:100600009C01319681E0E330F80761F70F5F1F4FDF
:100610000C151D0500F33093422E2093412EE4016A
:1006200018821982A0CFD092422EC092412E1092F1
:1006300039061092380680913A0690913B06019651
:1006400090933B0680933A0679CE8091380690913C
:1006500039064C01EFEF8E1A9E0A9092390680926D
:100660003806DC01AE5DBD4F07EF56960C935697EA
:1006700040913E06442379F0A0903A06B0903B06A4
:10068000A114B10441F40397069728F4309139027C
:10069000313409F492C08114910409F4F5CEA0908C
:1006A000432EB090442EC091412ED091422EE8E3CB
:1006B000F2E07D0127E1E20EF11CC12CB8E2DB2E55
:1006C0000AC0CF5BD94F60816883EC013196EE158B
:1006D000FF0509F4D5CECE010196B6010E94110C9A
:1006E0008A159B0571F70000F1CF00008ACF1091A9
:1006F0002A02112309F12F703327F901EE0FFF1F92
:10070000220F331F220F331F220F331FE20FF31F5D
:10071000E35EF04D718161E0670F6183DF01A70F38
:10072000B11DB09029021296BC92683059F1B08187
:10073000B83010F4BF5FB083C090432ED090442EE9
:10074000A090412EB090422EE8E2F2E0CA01885D0E
:100750009D4F4C0120E038E20BC0E501CF5BD94F43
:10076000408148835C013196E815F90509F4F7CE1C
:10077000C5010196B9010E94110CC816D90669F786
:100780000000F1CF1182D3CF48E854E050933D06EA
:1007900040933C069ACEB0903E02B11085CEB09107
:1007A0003F02B43081F0B13009F07ECE28E730E06E
:1007B00030933D0620933C0688CE50913B02563143
:1007C00009F069CF82CEA4E4B2E0B0933D06A093D5
:1007D0003C067BCE8091432E9091442E2091412E59
:1007E0003091422E2817390711F13091C00035FFA2
:1007F000FCCF40913E06442339F060911B2F70914D
:100800001C2F61157105F9F4FC01EF5BF94F508164
:100810005093C600442319F07081773F49F0019648
:1008200060E078E2FED79093442E8093432E0895A3
:10083000A0913C06B0913D06A056BF4FB0931C2F2F
:10084000A0931B2FECCF8FE396E00197F1F700C048
:100850000000089580914006089510923D06109280
:100860003C0610923E0610921C2F10921B2F8823DC
:1008700019F081E080933E0610922302109222022A
:100880001092270210922602109225021092240242
:1008900021E0611101C020E020933F0631E0309358
:1008A00040061092442E1092432E1092422E109227
:1008B000412EE3E0F1E091914091C00045FFFCCF73
:1008C0009093C60081E0E132F807A9F770E0572F56
:1008D000506860E0A091C000A5FFFCCF5093C60017
:1008E000B091C000B5FFFCCF6093C600F091C0008E
:1008F000F5FFFCCF1092C6006F5F603859F77F5F3D
:10090000703129F7EEE1FFE2DF0111971C921082AE
:100910003A968FE2EE3BF807B9F7089581E090919F
:100920004B2E911101C080E080934D2E82E006D7BE
:100930001092FA2E1092F42E1092F52E1092EE2EA6
:100940001092EF2E1092F02E1092F22E1092F72E9F
:100950001092F82E2FEF2093022F1092012F109259
:10096000032F4FEF5FEF5093052F4093042F10920A
:10097000FC2E1092FB2E1092FE2E1092FD2E109245
:10098000F12E34E630930D2F30930C2F5EE150930F
:100990000B2F50930A2F68E260930F2F60930E2F56
:1009A0001092102F1092132F7CE37093112F10923E
:1009B000122F10926F2E10926E2E1092072F1092FF
:1009C000062F1092E12E1092E02E1092ED2EEDE700
:1009D000FEE21082DF011D971D921C923E968EE270
:1009E000ED3EF807B1F7089590916F2E903298F48C
:1009F00020916E2EE22FE90F203218F02052209322
:100A00006E2EE03208F0E0529F5F90936F2EF0E080
:100A1000E55BF14D838308958091E22E8C3F91F048
:100A20001092EB2E20EF30E03093E12E2093E02E59
:100A30004091062F5091072F52605093072F4093FB
:100A4000062F08951092E22E1092EE2E6091062F3E
:100A50007091072F7D7F7093072F6093062F309141
:100A6000032F3111EECF70617093072F6093062F23
:100A70000895BF92CF92DF92EF92FF920F931F9350
:100A8000CF93DF93B82E082F10E0000F111F9801AD
:100A9000220F331F220F331F220F331F201B310B56
:100AA000F901E55BF14D82A9813009F462C0833020
:100AB000C1F4C0A8CC20A9F0A9014E58514D7A012B
:100AC000C0E0D0E06F0190E3C90ED11CF701819125
:100AD0007F0109DC2196F601208130E0C217D3079F
:100AE000A8F3D090032F2D2D30E00B2C02C03595AC
:100AF00027950A94E2F720FD19C0D1100DC000918E
:100B0000EE2E011109C0A091062FB091072FB06100
:100B1000B093072FA093062FDF91CF911F910F91D4
:100B2000FF90EF90DF90CF90BF900895E801CC0F39
:100B3000DD1FCC0FDD1FCC0FDD1FC01BD10BC55B34
:100B4000D14D18AA1AAA20EF30E03EA32DA381E0D0
:100B500090E002C0880F991FBA94E2F74091062FE7
:100B60005091072F842B952B9093072F8093062F5E
:100B7000D3CF87A58C3F09F0B4CFB5DB81E090E0FF
:100B80000B2C02C0880F991F0A94E2F7F82EF094FC
:100B90003091032FF322F092032F8095909560916E
:100BA000062F7091072F862397239093072F80930A
:100BB000062FDF2C98CF80916F2E0895CF93C82FEA
:100BC0008091F32E8823B9F02091FF2E3091002FD1
:100BD000232B21F4CF3359F0CF3F49F08C2F90E0F5
:100BE00001969093002F8093FF2ECF91089581E07E
:100BF000A5D51092F32EC03348F58C2F8370823028
:100C000009F479C0833009F464C0813011F48CEFA9
:100C10006ADBCC70C43009F45FC0C83009F051C041
:100C2000C1E0C093F22E80E089D5A0910C2F4091B5
:100C30000A2FA49FB001112480E992EEF2D580E042
:100C40004FD510926F2E10926E2E3BC030E63C0FA7
:100C5000383028F5C7704C2F50E02091022F30E03B
:100C600002C035952795CA95E2F720FF2AC0440FA8
:100C7000551FFA01EE0FFF1FEE0FFF1FEE0FFF1FB4
:100C8000E41BF50BE55BF14D85A13091F12E33238B
:100C900009F4F9C01092F12E8EEFCF91A5CE40E36A
:100CA0004C0F483058F5F091082FF093092FC7707A
:100CB000C093082F21E02093F42E1092F52E20935C
:100CC000F62E5091F12E552339F31092F12ECF913B
:100CD00008958BEF08DB9DCF80E030D51092F22E87
:100CE000C0EB8C2F00DB8BE7FEDA80E0FCDACF5F15
:100CF000CF3BB9F7E6CF8AEFF6DA8BCF4C2F50E037
:100D0000FA01FF97E13CF105E0F6EA5BFF4F9DC574
:100D10006CE670E081E0E4D451E05093F32EFEDD08
:100D200060914D2E6111CDCF60CFAEEFB0E0B093AA
:100D3000FE2EA093FD2EC5CF8C2F90E09093FE2E1B
:100D40008093FD2EBECF1092F42E71E07093F52E9D
:100D50007093F62EB6CF90E390930A2FB2CFBAE2FB
:100D6000B0930A2FAECFF4E2F0930A2FAACFCEE1D0
:100D7000C0930A2FA6CF88E180930A2FA2CF22E149
:100D800020930A2F9ECF3CE030930A2F9ACFC0EBDE
:100D90008C2FA9DA8BE7A7DA80E0A5DACF5FCF3B0B
:100DA000B9F7EDE7FEE2DF011D971D921C9210825C
:100DB0003E968EE2ED3EF807B1F71092E12E1092CA
:100DC000E02E1092ED2E4091F02E4093EE2E411128
:100DD00002C01092EF2E5091012F5093032F1092CA
:100DE000072F1092062F61E06093F82E6ACF78E209
:100DF00070930E2F66CF9091F12E992309F455C070
:100E00001092F12E80910C2FCF91EECDF091F12E1A
:100E1000FF2309F453C01092F12E80914C2EF4CF91
:100E20008091F12E882309F452C01092F12E81E0B6
:100E3000CF91DACDC0914C2EC5FF27C04091F12E45
:100E4000411128CF85E1D0DD5091F12E51113DCFD8
:100E500023CFB1E0B093F02E34CF91E09093132FD5
:100E600030CF1092132F2DCF6091F12E6623B1F069
:100E70001092F12E80E0CF91B7CD10924D2EB5CECD
:100E80001092F02E1ECFB0DD1CCFE091F12EEE239C
:100E900029F11092F12E85E1CF91A6CD8EEFA4DD40
:100EA0007091F12E711111CFE5CF8EEF9DDD809104
:100EB0000C2FB091F12EB11108CFA6CF8EEF94DD9B
:100EC00080914C2E2091F12E2111FFCE9DCF8EEFDF
:100ED0008BDD3091F12E3111F8CEA9CF8EEF84DD6C
:100EE000A091F12EA111F1CED6CFCF93DF93109226
:100EF000FA2E8091F92E882339F01092F92E209144
:100F0000EF2E222339F188DD1092F82E3091F22E47
:100F10003323E9F06091062F7091072F6115710559
:100F2000B1F020E030E0E1E0F0E0822FEF01022EAE
:100F300002C0CC0FDD1F0A94E2F7AE01462357230F
:100F4000452B61F42F5F3F4F2131310571F7DF9160
:100F5000CF9108958091082F8CDDD6CF9091F12EFE
:100F6000992369F01092F12EC095D095C623D7230E
:100F7000D093072FC093062FDF91CF910895805112
:100F800033DD6091062F7091072FEECF8091F92EFF
:100F9000811105C02091FA2E21110895A6CF31E0CC
:100FA0003093FA2E61E070E082E09AC30F931F93B2
:100FB000CF93DF9380914D2E882309F463C0009175
:100FC000F82E011153C000E71EE2C0E0D0E02091EE
:100FD000032F822F90E00C2E02C0959587950A94DE
:100FE000E2F780FF0AC0F801A081B1811197B183B7
:100FF000A0831A161B060CF053C02196025F1F4FE8
:10100000C830D10521F71091EE2E112369F0C0915F
:10101000E02ED091E12E2197D093E12EC093E02EC7
:101020001C161D060CF041C04091132F4423A1F063
:101030005091122F5F5F5093122F9091112F5917DB
:1010400058F01092122F6091062F7091072F706246
:101050007093072F6093062F7091F82E711106C0C0
:101060008091062F9091072F892BE9F480E066D3B9
:10107000B0910C2FD0910A2FBD9FB00111246115A2
:10108000710529F4DF91CF911F910F91089580E9A7
:1010900092EEC7D380E0DF91CF911F910F9120C3D3
:1010A0008C2FE7DCAACF21DFE1CFB6DCBDCF1092D9
:1010B000F32E8091FF2E9091002F009709F4089550
:1010C00081507CDD1092002F1092FF2E08953FD3A7
:1010D00080914C2E682F60748078BFDBBBDB811160
:1010E00001C0089510926F2E10926E2E10924D2E08
:1010F00081E080934B2E12CCCF93C82F80914D2E40
:101100008823E9F12091FD2E3091FE2E2C3E3105F1
:1011100009F4ADC0F0F02E3E310509F482C008F4A8
:1011200073C02F3E310509F48BC02E3F310509F005
:1011300072C01092FE2E1092FD2EC0934C2EC7DF6F
:10114000F091F12EFF2309F4E5C01092F12ECF911A
:101150000895203E310509F483C0A0F0213E3105F9
:1011600009F459C0273E310509F055C01092FE2EF2
:101170001092FD2EC695C695C093112FE8CF8C2FE7
:10118000CF91B1C8232B09F046C03091F42E311114
:1011900075C04091F52E442309F4BFC0C73F09F440
:1011A000C1C19091F62E992309F444C11092F62EF4
:1011B00010924A2E1092492EC23F09F4ACC108F495
:1011C0005AC1C33F09F4A0C1C63F09F054C1E1E0D0
:1011D000F0E0F093482EE093472E8C2F84D8809136
:1011E000492E90914A2E019690934A2E8093492E33
:1011F000DC012091472E3091482E2A173B0709F039
:10120000A6CF1092F52EA3CF1092FE2E1092FD2E97
:10121000C093022F9CCF1092FE2E1092FD2ECF91E4
:1012200008951092FE2E1092FD2E2091042F3091E1
:10123000052F22272C2B3093052F2093042F87CFA7
:101240001092FE2E1092FD2E8C2F90E0982F882762
:101250007091042F872B9093052F8093042F77CFC5
:101260001092FE2E1092FD2EC0930C2F70CF109274
:10127000FE2E1092FD2EC093012F69CFF091F62E15
:10128000FF23B9F11092F62E10924A2E1092492E99
:101290007C2F707F703B09F4DEC088F0703D09F44C
:1012A0006AC008F465C0703E09F4D5C0703F81F48F
:1012B0001092F42EC091092FC093082F48CF703997
:1012C00009F4C9C0703A09F4C6C0703809F4C3C043
:1012D000E1E0F0E0F0934A2EE093492E5091082F80
:1012E000BEE05B9FF0011124E55BF14D87A10E94F8
:1012F00073014091492E50914A2E2091472E3091F2
:10130000482E4217530708F445C04217530709F007
:101310001ECFCECF8EEFCF9167CB5091EF2E209185
:10132000FB2E3091FC2E552309F446C021303105A7
:1013300009F4C1C02230310509F4DAC0232B09F0C9
:1013400006CF1092EB2EC03F08F0F5C061E070E0D0
:101350007093FC2E6093FB2EC111F4C051E05093AA
:10136000F92E8C2F90E09093E12E8093E02EEFCE1B
:10137000703C09F0ADCF3091082F9EE0399FF0010D
:101380001124E55BF14DC7A342E050E05093482E95
:101390004093472E8C2F0E9473014091492E50910B
:1013A0004A2E4F5F5F4F50934A2E4093492E209113
:1013B000472E3091482EA9CF2115310509F460C080
:1013C0002130310509F0C3CE6091082F70E0CB01C8
:1013D000880F991FFC01EE0FFF1FEE0FFF1FEE0F8E
:1013E000FF1FE81BF90BE55BF14DA0A941E04A0F97
:1013F00040AB50E05093462E4093452E413051056E
:1014000009F4A3C0FC01EE0FFF1FEE0FFF1FEE0F4C
:10141000FF1FE81BF90BE55BF14DE40FF51FC6A3B9
:101420008091472E9091482E4817590709F08FCE8A
:10143000CF91ACCD2091472E3091482E211531050A
:1014400009F4CBCEA091492EB0914A2EA217B30732
:1014500008F0D3CEC2CE6091082F8EE0689FF001D5
:101460001124E55BF14DC7A3A3E0B0E0B093482E93
:10147000A093472E8FCF1092482E1092472EADCEBC
:10148000C03F08F058C0A1E0B0E0B093FC2EA0939C
:10149000FB2EC1114DC091E09093F92EF091082FD1
:1014A0007EE0F79FF0011124E55BF14D8C2F90E079
:1014B00096A385A34CCE38E03C0F323008F46AC0C6
:1014C00024E02093ED2E8091EB2EE82FF0E0EE51FA
:1014D000F14DC0838F5F8093EB2EC07FC03E09F03B
:1014E000A7CFA2E0B0E0B093FC2EA093FB2E2FCEAE
:1014F000B091EB2EEB2FF0E0EE51F14DC083BF5FCA
:10150000B093EB2ECF9142CD42E050E05093482E65
:101510004093472E62CE63E070E07093482E609354
:10152000472E5BCE87EF0E9473011092F52E0FCEEF
:101530001092F92EB3CF4FEF5FEF5093FC2E4093F4
:10154000FB2E76CF1092F92E0CCFBC2FB07FB03B84
:1015500009F442C010F1B03D09F452C008F44EC085
:10156000B03ED1F1B03FF9F4C83F08F45CC051E09F
:1015700052ABC7A73093482E2093472E4091452E5B
:101580005091462E4130510509F03CCFC03F08F044
:1015900047CF38CF1092ED2E96CFB039E9F0B03A60
:1015A000D9F0B038C9F042E050E05093462E409355
:1015B000452E3EE0369FF001379FF00D1124E55B8C
:1015C000F14DAE5FA0AB63E062AB21A930E0309398
:1015D000482E2093472ED2CF3EE0369FF001379F12
:1015E000F00D1124E55BF14D63E062AB61AB23E0EC
:1015F00030E03093482E2093472EC0CFB03C99F670
:101600002EE0269FF001279FF00D1124E55BF14DA0
:10161000A3E0A2ABB2E0B1AB42E050E05093482E61
:101620004093472EABCF72E072ABC7A73093482EE2
:101630002093472EA3CFCF9380916E2E803208F057
:101640008052E82FF0E0E55BF14DC3818F5F80931E
:101650006E2E90916F2E915090936F2E20914B2E65
:101660002223C9F030E13C0F3830C0F47C2F777072
:101670007093082F1092FC2E1092FB2E1092EF2EDA
:10168000A4E0AC0FA33038F4EFEFFFEFF093FC2EA3
:10169000E093FB2E7BDC8C2FCF910895C93F81F71F
:1016A0001092FC2E1092FB2E41E04093EF2E5091B1
:1016B000ED2E511105C01092ED2E8C2FCF91089573
:1016C0004093F12E8091E22E79DA6091FD2E709197
:1016D000FE2E6115710579F38091E32E0DDDEBCFC0
:1016E000CF93DF9300D01F92CDB7DEB761157105A0
:1016F00061F48130C1F0F8F0823039F46A837B8381
:101700008983F3DB89817B816A81E82FF0E0EE0F2A
:10171000FF1FEB5EF04D718360830F900F900F9071
:10172000DF91CF9108956A837B838983C0DC6A81CE
:101730007B818981EACF61E070E0E7CFE82FF0E0BC
:10174000EE0FFF1FEB5EF04D118210820895109294
:10175000162F1092152F1092182F1092172F1092EB
:101760001A2F1092192F08951F920F920FB60F92F1
:1017700011240BB60F922F933F934F935F936F9368
:101780007F938F939F93AF93BF93EF93FF9380913A
:101790001B2F90911C2F009729F0019790931C2FDD
:1017A00080931B2FA091152FB091162F109739F011
:1017B0001197B093162FA093152F109771F1E09108
:1017C000172FF091182F309739F03197F093182F89
:1017D000E093172F309719F18091192F90911A2FBC
:1017E000009741F0019790931A2F8093192F892B1E
:1017F00009F47BDBFF91EF91BF91AF919F918F91A6
:101800007F916F915F914F913F912F910F900BBE00
:101810000F900FBE0F901F901895C8DBD0CF47DCFC
:10182000DBCFAA1BBB1B51E107C0AA1FBB1FA6171A
:10183000B70710F0A61BB70B881F991F5A95A9F779
:1018400080959095BC01CD010895EE0FFF1F059086
:0A185000F491E02D0994F894FFCF05
:10185A00800000F0411016122000002020202048AD
:10186A006172644D50552076302E31202020204A56
:10187A00F700000000000000000000000000000067
:10188A00000000000000000000000000000000004E
:10189A00000000000000000000000000000000003E
:1018AA00000000000000000000000000000000002E
:1018BA00000000000000000000000000000000001E
:1018CA00000000000000000000000000000000000E
:1018DA0000000000000000000000000000000000FE
:1018EA0000000000000000000000000000000000EE
:1018FA0000000303030303030303030303030303B4
:10190A00030303030303030303030303030303039D
:10191A00030303030303030303030303030303038D
:10192A00030303030303030303030303030303037D
:10193A00030302020202020202020202020202027B
:10194A00020202020202020202020202020202026D
:10195A00020203030303030303030303030303034F
:10196A00030300020302000001000100010101005B
:02197A0001006A
:00000001FF
