:1000000006C1000022C1000020C100001EC1000086
:100010001CC100001AC1000018C1000016C1000078
:1000200014C1000012C1000010C100000EC1000088
:100030000CC100000C94AE0A08C1000006C100000B
:1000400004C1000002C1000000C10000FEC00000A9
:10005000FCC00000FAC00000F8C00000F6C00000BC
:10006000F4C00000F2C00000F0C00000EEC00000CC
:10007000ECC00000EAC00000E8C00000E6C00000DC
:10008000E4C00000E2C00000E0C00000A006D80507
:10009000D805D805D805D805D805D805D805D80578
:1000A000D805D805D805D805D805D805D805D80568
:1000B000D805D805D805D805D805D805D805D80558
:1000C000D805D805D805D805D805D805D805D80548
:1000D000D805D805D805D805D805D805D805D80538
:1000E000D805D805D805D805D805D805D805D80528
:1000F000D805D805D805D805D805D805D805D80518
:10010000D805D805D805D805D805D805D805D80507
:10011000D805D805D805D805D805D805D805D805F7
:10012000D805D805D805D805D805A3069C06D80556
:10013000D805D805D805AA06A606D805D805D80535
:10014000D805D805D805D805D805D805D805D805C7
:10015000D805D805D805D805D805D805D805D805B7
:10016000D805D805AD06910687067D067206D80526
:100170006E06D805D805D805D805D805D8053E0699
:100180003E06D805D805D805D805D805D805D80520
:10019000D8053A06360632062E062A062606220616
:1001A000D805D805D805D805D805D805D805D80567
:1001B000D805D805D805D805D805D805D805D80557
:1001C000D805D805D805D805D805D8051A061306C8
:1001D00013061306D8051306D80513061306D8050B
:1001E000D805D805D8051306130613061306D80537
:1001F000D805D805D805D805D805D805D805D80517
:10020000D805D805D805D805D8050C06FF05112452
:100210001FBECFEFD0E4DEBFCDBF12E0A0E0B1E063
:10022000E4E5F6E100E00BBF02C007900D92A232B8
:10023000B107D9F72FE2A2E2B2E001C01D92A63BBE
:10024000B207E1F703D00C94280BDACE88EF85B91A
:1002500028E124B93FEF38B93BB948E04093C100E9
:1002600067E270E07093C5006093C4005091810014
:1002700059605093810070916F00726070936F00AD
:10028000A7E8B3E1B0938900A093880091D6789451
:10029000CFEF03C0199912C09AD101D4882311F06D
:1002A000189B15C01A9BF6CFF8942C9800C000003C
:1002B00080B12C9A7894F6D3199BEECFF8942C98B1
:1002C00000C0000080B12C9A789487D6E5CF0E94B8
:1002D000210AF894C1B982B92B9800C000002B9A6A
:1002E00011B87894DFCF8F929F92AF92BF92CF9246
:1002F000DF92EF92FF920F931F93CF93DF93282FFC
:10030000883F08F049C087FD70C09091230299236F
:1003100009F442C0E091240281E08E0F8093240210
:10032000F0E0EE5DFD4F2383891708F44FC0809005
:100330003C06882009F46DC020912202122F107F04
:10034000103909F4EDC0103B09F488C0A090402E8C
:10035000B090412EE0913E2EF0913F2EC5E2D2E0CA
:10036000292F30E02B5D3D4FC12C98E2D92E0AC0D9
:10037000E25CF94F98809082FC012196C217D30766
:1003800009F43FC0CF010196B6010E940B0B8A15FC
:100390009B0571F70000F1CF20932D02E0913E2ED6
:1003A000F0913F2ECF01019660E078E20E940B0BA6
:1003B0006091402E7091412E86179707A1F0E25C64
:1003C000F94F208390933F2E80933E2EDF91CF9163
:1003D0001F910F91FF90EF90DF90CF90BF90AF9063
:1003E0009F908F9008950000F1CF80932202109289
:1003F0002402E82FF0E0EE5DFE4F908190932302FF
:1004000086CFF0933F2EE0933E2E91E0909324020E
:10041000DDCF0091402E1091412EE0913E2EF091C3
:100420003F2EC5E2D2E0292F30E02B5D3D4FE12C7D
:1004300088E2F82E09C0E25CF94F48814083FC0154
:100440002196C217D307E9F2CF010196B7010E94A6
:100450000B0B0817190779F70000F2CF309126022D
:100460003B57353008F072CF2F70C22ED12C5091EF
:100470000001507F522B509300017601EE0CFF1CBF
:10048000CC0CDD1CCC0CDD1CCC0CDD1CF701EC0D08
:10049000FD1DEA5EF04DB080BB20C1F10091402E01
:1004A0001091412EC0913E2ED0913F2E6AE0269FA2
:1004B000D00111249D01285E304DAB0DB11DCD0141
:1004C000885E904D5C01812C48E2942EF901719177
:1004D0009F0170930101E0E0F1E0CE010196B401CB
:1004E0000E940B0B80179107C9F0C25CD94FB081F5
:1004F000B883EC01319641E0E330F40771F72A1537
:100500003B0521F7D0933F2EC0933E2EE701CC0D43
:10051000DD1DCA5ED04D1882198277CF0000EACF68
:10052000D0902702DD2051F12F7030E06901CC0C12
:10053000DD1C220F331F220F331F220F331FD60162
:10054000A20FB31FAA5EB04D1196FC901197F1E077
:10055000FF0D1196FC931197ED01CF0DD11D409128
:1005600026024A83F83081F12C0D3D1DF901EA5E27
:10057000F04DD081D83010F4DF5FD0830091402E51
:100580001091412EE0913E2EF0913F2EC5E2D2E037
:10059000292F30E02B5D3D4FE12C78E2F72E0AC089
:1005A000E25CF94F98809082FC012196C217D30734
:1005B00009F427CFCF010196B7010E940B0B8017DA
:1005C000910771F70000F1CF11961C92CDCF2091C9
:1005D000402E3091412E80913E2E90913F2E8217D9
:1005E0009307F1F09091C00095FFFCCFE0913A069F
:1005F000E11117C0D901A25CB94F4C91C901019614
:1006000060E078E20E940B0B9093412E8093402E85
:1006100030913B06303F91F047FD2FC04093C6001C
:100620000895A091142FB091152FAB2B19F38FE3E0
:1006300096E00197F1F700C00000089547FD2EC035
:100640008091350690913606811524E0920739F4A1
:10065000909137069F5F9093370680E090E040933B
:10066000C6009C012F5F3F4F30933606209335061E
:10067000FC01EE5DFD4F438B089540933B06403FE8
:1006800069F64093C60061E070E0709336066093AF
:1006900035064093350210923706089557EF509370
:1006A000C6002091350630913606C9010196909317
:1006B000360680933506D901AE5DBD4F53965C93E7
:1006C00010923B06EE2309F4ABCF2091370621119F
:1006D00006C070913A027F3731F1703199F030E005
:1006E000322F2227330F330F820F931F9695879552
:1006F0000296880F991F880F991F9093152F80934A
:10070000142F0895B0913B02B111E9CFF0913C0252
:10071000F43081F0F13019F7E8E7F0E0F093152FAD
:10072000E093142F089568E874E07093152F609398
:10073000142F089544E452E05093152F4093142F42
:10074000089580913D06089510923906109238065A
:1007500010923A061092152F1092142F882319F038
:1007600081E080933A061092220210923B0610928A
:1007700024021092230221E0611101C020E02093A5
:100780003C0631E030933D061092412E1092402EEF
:1007900010923F2E10923E2EE3E0F1E091914091B5
:1007A000C00045FFFCCF9093C60081E0E132F8071E
:1007B000A9F770E0572F506860E0A091C000A5FF36
:1007C000FCCF5093C600B091C000B5FFFCCF609342
:1007D000C600F091C000F5FFFCCF1092C6006F5F1D
:1007E000603859F77F5F703129F7E7E1FFE2DF01F9
:1007F00011971C9210823A968FE2E73BF807B9F7FF
:10080000089581E09091452E911101C080E0809380
:10081000472E82E091D61092F42E1092EE2E109276
:10082000EF2E1092E82E1092E92E1092EA2E1092DE
:10083000EC2E1092F12E1092F22E2FEF2093FB2E21
:100840001092FA2E1092FC2E4FEF5FEF5093FE2E77
:100850004093FD2E1092F52E1092F72E1092F62E48
:100860001092EB2E34E63093062F3093052F5EE185
:100870005093042F5093032F68E26093082F6093E6
:10088000072F1092092F10920C2F7CE370930A2FE0
:1008900010920B2F1092692E1092682E1092002F3A
:1008A0001092FF2E1092DB2E1092DA2E1092E72E6D
:1008B000E7E7FEE21082DF011D971D921C923E9633
:1008C0008EE2E73EF807B1F708959091692E9111F5
:1008D0001BC02091452E222319F031E03093F22ED7
:1008E0004091682EE42FE90F403218F040524093B7
:1008F000682EE03208F0E0529F5F9093692EF0E09E
:10090000EB5BF14D83830895903250F3000008951E
:100910008091DC2E8C3F91F01092E52E20EF30E09C
:100920003093DB2E2093DA2E4091FF2E5091002F32
:1009300052605093002F4093FF2E08951092DC2EAA
:100940001092E82E6091FF2E7091002F7D7F7093A2
:10095000002F6093FF2E3091FC2E3111EECF70618D
:100960007093002F6093FF2E0895CF92DF92EF9245
:10097000FF920F931F93CF93DF93D82FE82EF12C84
:10098000EE0CFF1C8701000F111F000F111F000F3D
:10099000111F0E191F09F801EB5BF14D82A981307F
:1009A00009F45CC0833099F4C0A8CC2081F0C0E089
:1009B0008F016F0180E3C80ED11CF801EC0FF11D0F
:1009C00087A191DCCF5FF6019081C917B0F3D09079
:1009D000FC2E2D2D30E00D2E02C0359527950A9462
:1009E000E2F720FD18C0D1100DC0E090E82EE11014
:1009F00009C02091FF2E3091002F30613093002FDD
:100A00002093FF2EDF91CF911F910F91FF90EF90D8
:100A1000DF90CF900895F701EE0FFF1FEE0FFF1F3D
:100A2000EE0FFF1FEE19FF09EB5BF14D10AA12AAA2
:100A300060EF70E076A365A3A1E0B0E002C0AA0F6A
:100A4000BB1FDA95E2F78091FF2E9091002FA82B23
:100A5000B92BB093002FA093FF2ED4CF87A58C3F46
:100A600009F0B5CF40DC21E030E00D2E02C0220FAE
:100A7000331F0A94E2F7122F1095D090FC2ED1224A
:100A8000D092FC2E209530954091FF2E5091002F52
:100A9000242335233093002F2093FF2E9ACF80916B
:100AA000692E0895CF93C82F8091ED2E8823B9F039
:100AB000A091F82EB091F92EAB2B21F4CF3359F041
:100AC000CF3F49F08C2F90E001969093F92E8093C0
:100AD000F82ECF91089581E02FD51092ED2EC033DE
:100AE00050F5AC2FA370A23009F47CC0A33009F4F8
:100AF00067C0A13011F48CEFF6DB3C2F3C70343032
:100B000009F461C0383009F053C041E04093EC2E45
:100B100080E012D55091052F6091032F569FB001B0
:100B2000112480E992EE77D580E0D8D41092692E16
:100B30001092682E3DC020E62C0F283030F58C2F07
:100B40008770482F50E02091FB2E30E002C0359591
:100B500027958A95E2F720FF2BC0440F551FFA0115
:100B6000EE0FFF1FEE0FFF1FEE0FFF1FE41BF50B35
:100B7000EB5BF14D85A1C091EB2ECC2309F4DAC0DB
:100B80001092EB2E8EEFCF91A0CE30E33C0F383099
:100B900060F59091012F9093022FBC2FB770B09306
:100BA000012FF1E0F093EE2E1092EF2EF093F02E45
:100BB0007091EB2E772331F31092EB2ECF910895A5
:100BC0008BEF91DB9ACF80E0B7D41092EC2EC0EB84
:100BD0008C2F89DB8BE787DB80E085DBCF5FCF3B2A
:100BE000B9F7E6CF8AEF7FDB88CF8C2F90E0FC014E
:100BF000FF97E13CF105E0F6EA5BFF4F20C56CE6AC
:100C000070E081E06BD441E04093ED2EFADD50912D
:100C1000472E5111CDCF5DCF6EEF70E07093F72E60
:100C20006093F62EC5CF8C2F90E09093F72E809393
:100C3000F62EBECF1092EE2E71E07093EF2E7093D1
:100C4000F02EB6CF90E39093032FB2CFBAE2B093D9
:100C5000032FAECFF4E2F093032FAACFCEE1C093DF
:100C6000032FA6CF88E18093032FA2CFA2E1A09308
:100C7000032F9ECF2CE02093032F9ACFC0EB8C2F15
:100C800032DB8BE730DB80E02EDBCF5FCF3BB9F789
:100C9000E7E7FEE2DF011D971D921C9210823E964F
:100CA0007EE2E73EF707B1F71092DB2E1092DA2EC4
:100CB0001092E72E3091EA2E3093E82E311102C0C7
:100CC0001092E92E4091FA2E4093FC2E1092002FA4
:100CD0001092FF2E51E05093F22E6ACF68E260939B
:100CE000072F66CF7091EB2E772309F448C010923E
:100CF000EB2E8091052FCF91E8CDB091EB2EBB2349
:100D000009F454C01092EB2E8091462EF4CF8091BE
:100D1000EB2E882309F43CC01092EB2E81E0CF919A
:100D2000D4CDC091462EC5FF21C03091EB2E31119C
:100D300027CF85E1CADD3CCF71E07093EA2E38CF32
:100D40001092472E35CF1092EA2E32CF61E0609399
:100D50000C2F2ECF10920C2F2BCF4091EB2E442333
:100D6000F1F01092EB2E80E0CF91AFCDE091EB2E21
:100D7000EE2329F11092EB2E85E1CF91A6CD8EEFD7
:100D8000A4DD8091052F9091EB2E911115CFB3CF5B
:100D90008EEF9BDD2091EB2E21110ECFBFCF8EEF7A
:100DA00094DD5091EB2E511107CFDDCF8EEF8DDD0D
:100DB0008091462EF091EB2EF111FECE9CCF8EEF5E
:100DC00084DDA091EB2EA111F7CED6CFCF93DF9388
:100DD0001092F42E8091F32E882339F01092F32E86
:100DE0002091E92E222339F193DD1092F22E3091D9
:100DF000EC2E3323E9F06091FF2E7091002F6115E6
:100E00007105B1F020E030E0E1E0F0E0822FEF0189
:100E1000022E02C0CC0FDD1F0A94E2F7AE0146237A
:100E20005723452B61F42F5F3F4F2131310571F777
:100E3000DF91CF9108958091012F97DDD6CF9091CA
:100E4000EB2E992369F01092EB2EC095D095C62316
:100E5000D723D093002FC093FF2EDF91CF91089519
:100E6000805133DD6091FF2E7091002FEECF809185
:100E7000F32E811105C02091F42E21110895A6CFE3
:100E800031E03093F42E61E070E082E027C30F93ED
:100E90001F93CF93DF938091472E882309F463C07B
:100EA0000091F22E011153C00AE61EE2C0E0D0E02C
:100EB0002091FC2E822F90E00C2E02C095958795F4
:100EC0000A94E2F780FF0AC0F801A081B18111976E
:100ED000B183A0831A161B060CF053C02196025F43
:100EE0001F4FC830D10521F71091E82E112369F06A
:100EF000C091DA2ED091DB2E2197D093DB2EC093B8
:100F0000DA2E1C161D060CF041C040910C2F442314
:100F1000A1F050910B2F5F5F50930B2F90910A2FF0
:100F2000591758F010920B2F6091FF2E7091002FDF
:100F300070627093002F6093FF2E7091F22E7111EA
:100F400006C08091FF2E9091002F892BE9F480E05C
:100F5000F3D2B091052FD091032FBD9FB001112482
:100F60006115710529F4DF91CF911F910F910895BB
:100F700080E992EE50D380E0DF91CF911F910F91E5
:100F8000ADC28C2FF2DCAACF21DFE1CFC1DCBDCF17
:100F90001092ED2E8091F82E9091F92E009709F481
:100FA000089581507FDD1092F92E1092F82E089549
:100FB000CCD28091462E682F60748078C5DBC1DB6F
:100FC000811101C008951092692E1092682E10921E
:100FD000472E81E08093452E14CCCF939091472EDD
:100FE000992309F441C02091F62E3091F72E2C3E22
:100FF000310509F4A0C0C82F2D3E3105F0F02E3E7A
:10100000310509F473C008F464C02F3E310509F4BA
:101010007CC02E3F310509F063C01092F72E10926C
:10102000F62E8093462EC4DF5091EB2E552309F403
:10103000C7C01092EB2ECF910895203E310509F4E0
:1010400073C0A0F0213E310509F44AC0273E3105A6
:1010500009F046C01092F72E1092F62E682F669572
:10106000669560930A2FE7CFCF913DC9232BC1F539
:101070008091EE2E811166C03091EF2E332309F45A
:10108000A2C0C73F09F46FC1A091F02EAA2309F4B2
:101090000AC11092F02E1092442EC23F09F45FC193
:1010A00008F419C1C33F09F456C1C63F09F013C182
:1010B00021E02093432E8C2F16D98091442E8F5FF0
:1010C0008093442E4091432E8413B5CF1092EF2E7F
:1010D000B2CF1092F72E1092F62E8093FB2EABCF4C
:1010E0001092F72E1092F62ECF9108951092F72EAF
:1010F0001092F62E8091FD2E9091FE2E88278C2B3B
:101100009093FE2E8093FD2E96CF1092F72E109284
:10111000F62E90E0982F8827B091FD2E8B2B909380
:10112000FE2E8093FD2E87CF1092F72E1092F62E72
:101130008093052F80CF1092F72E1092F62E809379
:10114000FA2E79CF3091F02E332389F11092F02EC0
:101150001092442E7C2F707F703B09F4AFC088F052
:10116000703D09F454C008F44FC0703E09F4A6C0A5
:10117000703F81F41092EE2EC091022FC093012F88
:101180005ACF703909F49AC0703A09F497C0703890
:1011900009F494C061E06093442E5091012F9EE0C9
:1011A000599FF0011124EB5BF14D87A19CD8309140
:1011B000442E7091432E3717B0F137133CCFDACF5E
:1011C0008EEFCF9182CB4091E92E4423B1F18091F3
:1011D000F52E813009F499C0823009F4B1C0811133
:1011E0002ACF1092E52EC03F08F0C6C041E04093E0
:1011F000F52EC111C6C04093F32E8C2F90E0909332
:10120000DB2E8093DA2E17CF703C09F0C3CFB0915C
:10121000012FAEE0BA9FF0011124EB5BF14DC7A3A3
:1012200022E02093432E8C2F5ED83091442E3F5FD6
:101230003093442E7091432EC0CF7091F52E7723BA
:1012400009F44CC0713009F0F6CE2091012F30E046
:10125000D901AA0FBB1FFD01EE0FFF1FEE0FFF1FED
:10126000EE0FFF1FEA1BFB0BEB5BF14D60A991E05A
:10127000960F90AB9093422E913009F485C0FD01FA
:10128000EE0FFF1FEE0FFF1FEE0FFF1FEA1BFB0B02
:10129000EB5BF14DE90FF11DC6A3B091432E9B13FB
:1012A000CACECF91E4CD4091432E442309F403CF1D
:1012B0008091442E841708F007CFFDCEF091012FC6
:1012C0008EE0F89FF0011124EB5BF14DC7A343E0E2
:1012D0004093432EA8CF1092432EEDCEC03F08F08E
:1012E0004BC0A1E0A093F52EC11143C0A093F32EF3
:1012F0002091012FFEE02F9FF0011124EB5BF14DB7
:101300008C2F90E096A385A396CE78E07C0F723068
:1013100008F457C064E06093E72E5091E52EE52F66
:10132000F0E0E452F14DC0835F5F5093E52E9C2FB7
:10133000907F903E09F0B5CFB2E0B093F52E7BCE12
:101340003091E52EE32FF0E0E452F14DC0833F5F92
:101350003093E52EA6CFF2E0F093432EACCEE3E03F
:10136000E093432EA8CE87EF0E9473011092EF2ED8
:1013700062CE1092F32EBCCFCFEFC093F52ECF915B
:1013800076CD1092F32E39CF5C2F507F503BA1F1D8
:10139000D8F0503D09F440C0E8F1503E69F1503FAB
:1013A000C9F4C83F08F447C072ABC7A77093432E77
:1013B0009091422E913009F062CFC03F08F06DCF7E
:1013C0005ECF1092E72EA9CF5039B1F0503AA1F07C
:1013D000503891F06E5F6093422E9EE0929FF00134
:1013E000939FF00D1124EB5BF14D60AB23E022AB3A
:1013F000F1A9F093432EDCCF6EE0629FF001639F72
:10140000F00D1124EB5BF14D53E052AB51AB509317
:10141000432ECECF503CF1F64EE0429FF001439F69
:10142000F00D1124EB5BF14D33E032AB72E071ABA8
:101430007093432EBDCF82E082ABC7A77093432E3B
:10144000B7CFCF939091682E903208F09052E92F49
:10145000F0E0EB5BF14DC3819F5F9093682E20918C
:10146000692E21502093692E8091452E8823A1F06A
:1014700030E13C0F383098F46C2F67706093012F87
:101480001092F52E1092E92E74E07C0F733020F448
:10149000BFEFB093F52EEBDC8C2FCF910895C93FB1
:1014A00099F71092F52E41E04093E92E5091E72EE6
:1014B000511105C01092E72E8C2FCF9108954093C3
:1014C000EB2E8091DC2EEEDAA091F62EB091F72E65
:1014D000AB2B81F38091DD2E80DDECCFCF93DF93BA
:1014E00000D01F92CDB7DEB76115710561F4813070
:1014F000C1F0F8F0823039F46A837B83898366DC3B
:101500006A817B818981E82FF0E0EE0FFF1FE25FA7
:10151000F04D718360830F900F900F90DF91CF910A
:1015200008956A837B83898333DD6A817B81898126
:10153000EACF61E070E0E7CFE82FF0E0EE0FFF1FA9
:10154000E25FF04D118210820895EEE0FFE2118219
:101550001082138212821582148208951F920F92B4
:101560000FB60F9211240BB60F922F933F934F9308
:101570005F936F937F938F939F93AF93BF93EF93FB
:10158000FF938091142F9091152F009729F00197C8
:101590009093152F8093142FA0910E2FB0910F2FA1
:1015A000109739F01197B0930F2FA0930E2FAB2BFC
:1015B00071F1E091102FF091112F309739F03197A0
:1015C000F093112FE093102FEF2B19F18091122F30
:1015D0009091132F009741F001979093132F8093D0
:1015E000122F892B09F4F2DBFF91EF91BF91AF919C
:1015F0009F918F917F916F915F914F913F912F912B
:101600000F900BBE0F900FBE0F901F9018953FDCF0
:10161000D0CFBEDCDBCFAA1BBB1B51E107C0AA1F8A
:10162000BB1FA617B70710F0A61BB70B881F991F83
:101630005A95A9F780959095BC01CD010895EE0FBC
:10164000FF1F0024001C0BBE0790F691E02D0994AB
:04165000F894FFCF3C
:10165400800000F04110161220000020202A2A2ABF
:1016640020486172644D5055202A2A2A20202013D4
:10167400F70000000000000000000000000000006F
:101684000000000000000000000000000000000056
:101694000000000000000000000000000000000046
:1016A4000000000000000000000000000000000036
:1016B4000000000000000000000000000000000026
:1016C4000000000000000000000000000000000016
:1016D4000000000000000000000000000000000006
:1016E40000000000000000000000000000000000F6
:1016F40000000303030303030303030303030303BC
:1017040003030303030303030303030303030303A5
:101714000303030303030303030303030303030395
:101724000303030303030303030303030303030385
:101734000303020202020202020202020202020283
:101744000202020202020202020202020202020275
:101754000202030303030303030303030303030357
:101764000303000203020000010001000101010063
:02177400010072
:00000001FF
