:1000000006C1000022C1000020C100001EC1000086
:100010001CC100001AC1000018C1000016C1000078
:1000200014C1000012C1000010C100000EC1000088
:100030000CC100000C946F0B08C1000006C1000049
:1000400004C1000002C1000000C10000FEC00000A9
:10005000FCC00000FAC00000F8C00000F6C00000BC
:10006000F4C00000F2C00000F0C00000EEC00000CC
:10007000ECC00000EAC00000E8C00000E6C00000DC
:10008000E4C00000E2C00000E0C000000307270653
:1000900027062706270627062706270627062706F8
:1000A00027062706270627062706270627062706E8
:1000B00027062706270627062706270627062706D8
:1000C00027062706270627062706270627062706C8
:1000D00027062706270627062706270627062706B8
:1000E00027062706270627062706270627062706A8
:1000F0002706270627062706270627062706270698
:100100002706270627062706270627062706270687
:100110002706270627062706270627062706270677
:10012000270627062706270627060607EF062706BF
:10013000270627062706F706F306270627062706BB
:100140002706270627062706270627062706270647
:100150002706270627062706270627062706270637
:1001600027062706FA06E006D606CC06C1062706AD
:10017000BD062706270627062706270627068D061B
:100180008D062706270627062706270627062706A1
:1001900027068906850681067D067906750671069D
:1001A00027062706270627062706270627062706E7
:1001B00027062706270627062706270627062706D7
:1001C000270627062706270627062706690662064A
:1001D0006206620627066206270662066206270690
:1001E00027062706270662066206620662062706BB
:1001F0002706270627062706270627062706270697
:10020000270627062706270627065B064E06112423
:100210001FBECFEFD0E4DEBFCDBF12E0A0E0B1E063
:10022000E0EDF7E100E00BBF02C007900D92A232B3
:10023000B107D9F72BE0A2E2B2E001C01D92AD3BBD
:10024000B207E1F703D00C94E60BDACE88EF85B95C
:1002500028E124B93FEF38B93BB948E04093C100E9
:1002600067E270E07093C5006093C4005091810014
:1002700058605093810070916F00726070936F00AE
:100280007894A8E8B3E1B0938900A0938800909196
:100290008100916090938100E0D6CFEF85D21A99CA
:1002A00015C019991DC04DD48823C1F31899F6CFF4
:1002B0000E94D60AF894C1B982B92B9800C00000F8
:1002C0002B9A11B8789470D21A9BEBCFF8942C9893
:1002D00000C0000080B12C9A789436D4199BE3CFEB
:1002E000F8942C9800C0000080B12C9A7894CAD65B
:1002F000DACFCF92DF92EF92FF920F931F93CF93BB
:10030000DF9390913E06992311F120911B0B3091C0
:100310001C0B232BE1F0F894C0901B0BD0901C0B0E
:10032000C114D10499F0C1EED4E02197F1F700C0D7
:10033000000000911B0B10911C0B01501109109330
:100340001C0B00931B0B0115110569F77894883F6E
:1003500010F1809330020091410A1091420AA801E5
:100360004F5F5F4F53706091430A7091440A461784
:10037000570741F0E801CF5BD94F88835093420A79
:100380004093410ADF91CF911F910F91FF90EF9021
:10039000DF90CF9008954091220250912302403F78
:1003A000510509F456C087FD03C1409124025091C4
:1003B00025024115510531F3C0902602D090270245
:1003C000B6016F5F7F4F7093270260932602F6019C
:1003D000EE5DFD4F868364177507A0F280913F069E
:1003E000882309F40AC12091220230912302890155
:1003F000007F11270039110509F46CC1003B11057C
:1004000009F418C12091430A3091440AA091410A8D
:10041000B091420AE8E2F2E0485D5D4FCD010196FD
:1004200093708217930731F0ED01CF5BD94FF080C5
:10043000F882DC013196E417F50781F7B093420AA0
:10044000A093410A61E070E0709327026093260256
:1004500099CF87FD41C0C0903806D0903906A601DB
:100460004F5F5F4F5093390640933806F601EE5DBB
:10047000FD4F868B4115D4E05D0709F083CFE090F6
:10048000430AF090440A2091410A3091420AC8E39D
:10049000D2E0C901019693708E159F0531F0D90104
:1004A000AF5BB94F18811C939C01219686E0C8333D
:1004B000D80779F73093420A2093410A10923906FF
:1004C00010923806E0913A06F0913B063196F0938F
:1004D0003B06E0933A0656CFA0913806B091390614
:1004E0007D019FEFE91AF90AF0923906E092380689
:1004F000BD016E5D7D4F17EFEB011E8BD0903E0668
:10050000DD2079F0E0913A06F0913B06309749F40E
:100510001397A630B10528F430913902313409F42B
:1005200036C1E114F10409F10091430A1091440A23
:100530004091410A5091420AE8E3F2E0695E7F4F40
:100540009A012F5F3F4F33702017310731F0EA01D6
:10055000CF5BD94FB081B883A9013196E617F70771
:1005600079F75093420A4093410ADD2009F16091E6
:100570003A0670913B066115710541F4D0913D0238
:10058000DF3709F4EBC0D03109F4EFC0762F6627CE
:10059000770F770F6E0D7F1D769567956E5F7F4F96
:1005A000660F771F660F771F70931C0B60931B0BF2
:1005B000282F30E03093230220932202109227024A
:1005C00010922602E901CE5DDE4F488150E0509343
:1005D000250240932402203F310509F0EACE70EF56
:1005E0007093380221E030E03093390620933806CA
:1005F00010923B0610923A06DCCEE090430AF0904F
:10060000440AA091410AB091420AE8E2F2E0485D52
:100610005D4FCD01019693708E159F0531F0ED0170
:10062000CF5BD94F10811883DC013196E417F507B1
:1006300081F704CFB0912902BB57B53008F0E2CE64
:100640002F70332750910001507F522B509300019F
:10065000A901440F551F220F331F220F331F220FF2
:10066000331F420F531FFA01E35EF44F6F01008105
:10067000002361F16091430A7091440A10E02091D7
:10068000410A3091420ADF01129640E050E0DD91CC
:10069000D0930101E0E0F1E0C90101969370861763
:1006A000970731F02F5B394FE080E901E8829C0128
:1006B0003196D1E0E330FD0779F74F5F5F4F401788
:1006C000510728F33093420A2093410AF601108221
:1006D0001182B8CED0902A02DD2009F12F70332785
:1006E000E901CC0FDD1F220F331F220F331F220F12
:1006F000331FC20FD31FC35ED44F3981F1E0F30F14
:10070000F983DE01A30FB11D9091290212969C93EB
:10071000F83011F17881783010F47F5F78830091A0
:10072000430A1091440AA091410AB091420AE8E2BA
:10073000F2E0485D5D4FCD010196937008171907EF
:1007400031F0ED01CF5BD94FB081B883DC01319638
:10075000E417F50781F772CE1982DCCFE8E8F4E000
:10076000F0931C0BE0931B0B23CFF0913E02F11191
:100770000DCF90913F02943081F0913009F006CF77
:10078000A8E7B0E0B0931C0BA0931B0B11CF5091C6
:100790003B02563109F0C5CE0BCF04E412E01093B2
:1007A0001C0B00931B0B04CF8091430A9091440AC9
:1007B0002091410A3091420A2817390781F030917F
:1007C000C00035FFFCCFFC01EF5BF94F4081409347
:1007D000C600019693709093440A8093430A08954B
:1007E00080914006089510923D0610923C061092AA
:1007F0003E0610921C0B10921B0B882319F081E00F
:1008000080933E0610922302109222021092270239
:1008100010922602109225021092240221E061110A
:1008200001C020E020933F0631E030934006109253
:10083000440A1092430A1092420A1092410AE3E0DD
:10084000F1E091914091C00045FFFCCF9093C6002C
:1008500081E0E132F807A9F770E0572F506860E0B7
:10086000A091C000A5FFFCCF5093C600B091C0007E
:10087000B5FFFCCF6093C600F091C000F5FFFCCF40
:100880001092C6006F5F603859F77F5F703129F7AB
:10089000EEE1FBE0DF0111971C9210823A968BE0AB
:1008A000EE3BF807B9F7089581E090914B0A91115A
:1008B00001C080E080934D0A82E0FBD61092FA0AD4
:1008C0001092F40A1092F50A1092EE0A1092EF0AB2
:1008D0001092F00A1092F20A1092F70A1092F80A97
:1008E0002FEF2093020B1092010B1092030B4FEF8E
:1008F0005FEF5093050B4093040B1092FC0A10928B
:10090000FB0A1092FE0A1092FD0A1092F10A34E6D8
:1009100030930D0B30930C0B5EE150930B0B509307
:100920000A0B68E260930F0B60930E0B1092100B92
:100930001092130B7CE37093110B1092120B109218
:100940006F0A10926E0A1092070B1092060B10920B
:10095000E10A1092E00A1092ED0AEDE7FAE0108247
:10096000DF011D971D921C923E968AE0ED3EF8072E
:10097000B1F7089590916F0A903298F420916E0A21
:10098000E22FE90F203218F0205220936E0AE03255
:1009900008F0E0529F5F90936F0AF0E0E55BF54F3F
:1009A000838308958091E20A8C3F91F01092EB0AC4
:1009B00020EF30E03093E10A2093E00A4091060BEB
:1009C0005091070B52605093070B4093060B08950C
:1009D0001092E20A1092EE0A6091060B7091070BDA
:1009E0007D7F7093070B6093060B3091030B3111E1
:1009F000EECF70617093070B6093060B0895BF9262
:100A0000CF92DF92EF92FF920F931F93CF93DF93DA
:100A1000B82E082F10E0000F111F9801220F331F6E
:100A2000220F331F220F331F201B310BF901E55B0F
:100A3000F54F82A9813009F462C08330C1F4C0A8A7
:100A4000CC20A9F0A9014E58554F7A01C0E0D0E062
:100A50006F0190E3C90ED11CF70181917F0149DC40
:100A60002196F601208130E0C217D307A8F3D09079
:100A7000030B2D2D30E00B2C02C0359527950A94E1
:100A8000E2F720FD19C0D1100DC00091EE0A01114E
:100A900009C0A091060BB091070BB061B093070B92
:100AA000A093060BDF91CF911F910F91FF90EF90D4
:100AB000DF90CF90BF900895E801CC0FDD1FCC0FE1
:100AC000DD1FCC0FDD1FC01BD10BC55BD54F18AA96
:100AD0001AAA20EF30E03EA32DA381E090E002C0EF
:100AE000880F991FBA94E2F74091060B5091070BBB
:100AF000842B952B9093070B8093060BD3CF87A560
:100B00008C3F09F0B4CFF5DB81E090E00B2C02C004
:100B1000880F991F0A94E2F7F82EF0943091030B96
:100B2000F322F092030B809590956091060B7091E3
:100B3000070B862397239093070B8093060BDF2CDC
:100B400098CF80916F0A0895CF93C82F8091F30AB0
:100B50008823B9F02091FF0A3091000B232B21F458
:100B6000CF3359F0CF3F49F08C2F90E0019690930E
:100B7000000B8093FF0ACF91089581E09AD51092DF
:100B8000F30AC03348F58C2F8370823009F479C0A2
:100B9000833009F464C0813011F48CEFAADBCC708F
:100BA000C43009F45FC0C83009F051C0C1E0C0933F
:100BB000F20A80E07ED5A0910C0B40910A0BA49F15
:100BC000B001112480E992EEE7D580E044D510927F
:100BD0006F0A10926E0A3BC030E63C0F383028F5A1
:100BE000C7704C2F50E02091020B30E002C03595C9
:100BF0002795CA95E2F720FF2AC0440F551FFA0136
:100C0000EE0FFF1FEE0FFF1FEE0FFF1FE41BF50B94
:100C1000E55BF54F85A13091F10A332309F4F9C062
:100C20001092F10A8EEFCF91A5CE40E34C0F4830E1
:100C300058F5F091080BF093090BC770C093080B9F
:100C400021E02093F40A1092F50A2093F60A5091BD
:100C5000F10A552339F31092F10ACF9108958BEFE1
:100C600048DB9DCF80E025D51092F20AC0EB8C2F97
:100C700040DB8BE73EDB80E03CDBCF5FCF3BB9F76F
:100C8000E6CF8AEF36DB8BCF4C2F50E0FA01FF978F
:100C9000E13CF105E0F6EA5BFF4F92C56CE670E0DF
:100CA00081E0D9D451E05093F30AFEDD60914D0A02
:100CB0006111CDCF60CFAEEFB0E0B093FE0AA0934C
:100CC000FD0AC5CF8C2F90E09093FE0A8093FD0A19
:100CD000BECF1092F40A71E07093F50A7093F60A91
:100CE000B6CF90E390930A0BB2CFBAE2B0930A0B5F
:100CF000AECFF4E2F0930A0BAACFCEE1C0930A0B79
:100D0000A6CF88E180930A0BA2CF22E120930A0BA1
:100D10009ECF3CE030930A0B9ACFC0EB8C2FE9DAE0
:100D20008BE7E7DA80E0E5DACF5FCF3BB9F7EDE7B5
:100D3000FAE0DF011D971D921C9210823E968AE018
:100D4000ED3EF807B1F71092E10A1092E00A109216
:100D5000ED0A4091F00A4093EE0A411102C0109250
:100D6000EF0A5091010B5093030B1092070B109256
:100D7000060B61E06093F80A6ACF78E270930E0B7D
:100D800066CF9091F10A992309F455C01092F10AA7
:100D900080910C0BCF91EECDF091F10AFF2309F475
:100DA00053C01092F10A80914C0AF4CF8091F10A5D
:100DB000882309F452C01092F10A81E0CF91DACD74
:100DC000C0914C0AC5FF27C04091F10A411128CFBC
:100DD00085E1D0DD5091F10A51113DCF23CFB1E033
:100DE000B093F00A34CF91E09093130B30CF109270
:100DF000130B2DCF6091F10A6623B1F01092F10A26
:100E000080E0CF91B7CD10924D0AB5CE1092F00A86
:100E10001ECFB0DD1CCFE091F10AEE2329F1109234
:100E2000F10A85E1CF91A6CD8EEFA4DD7091F10A94
:100E3000711111CFE5CF8EEF9DDD80910C0BB0913C
:100E4000F10AB11108CFA6CF8EEF94DD80914C0A44
:100E50002091F10A2111FFCE9DCF8EEF8BDD3091D5
:100E6000F10A3111F8CEA9CF8EEF84DDA091F10AFD
:100E7000A111F1CED6CFCF93DF931092FA0A8091D1
:100E8000F90A882339F01092F90A2091EF0A2223F7
:100E900039F188DD1092F80A3091F20A3323E9F033
:100EA0006091060B7091070B61157105B1F020E0A0
:100EB00030E0E1E0F0E0822FEF01022E02C0CC0F23
:100EC000DD1F0A94E2F7AE0146235723452B61F458
:100ED0002F5F3F4F2131310571F7DF91CF91089599
:100EE0008091080B8CDDD6CF9091F10A992369F09F
:100EF0001092F10AC095D095C623D723D093070B43
:100F0000C093060BDF91CF910895805133DD60913E
:100F1000060B7091070BEECF8091F90A811105C085
:100F20002091FA0A21110895A6CF31E03093FA0AF0
:100F300061E070E082E08FC30F931F93CF93DF9344
:100F400080914D0A882309F463C00091F80A0111C9
:100F500053C000E71AE0C0E0D0E02091030B822FDD
:100F600090E00C2E02C0959587950A94E2F780FFD9
:100F70000AC0F801A081B1811197B183A0831A162C
:100F80001B060CF053C02196025F1F4FC830D105DD
:100F900021F71091EE0A112369F0C091E00AD09177
:100FA000E10A2197D093E10AC093E00A1C161D06BE
:100FB0000CF041C04091130B4423A1F05091120B4F
:100FC0005F5F5093120B9091110B591758F01092CC
:100FD000120B6091060B7091070B70627093070BF8
:100FE0006093060B7091F80A711106C08091060B90
:100FF0009091070B892BE9F480E05BD3B0910C0B47
:10100000D0910A0BBD9FB00111246115710529F41F
:10101000DF91CF911F910F91089580E992EEBCD39B
:1010200080E0DF91CF911F910F9115C38C2FE7DCEA
:10103000AACF21DFE1CFB6DCBDCF1092F30A8091B9
:10104000FF0A9091000B009709F4089581507CDD10
:101050001092000B1092FF0A089534D380914C0A2D
:10106000682F60748078BFDBBBDB811101C00895FD
:1010700010926F0A10926E0A10924D0A81E08093CE
:101080004B0A12CCCF93C82F80914D0A8823B1F11F
:101090002091FD0A3091FE0A2C3E310509F4A6C0CC
:1010A000B0F02E3E310509F47BC008F46CC02F3E31
:1010B000310509F484C02E3F310509F06BC0109250
:1010C000FE0A1092FD0AC0934C0ACF91C6CF203E73
:1010D000310509F484C0A8F0213E310509F45AC055
:1010E000273E310509F056C01092FE0A1092FD0A03
:1010F000C695C695C093110BCF9108958C2FCF91B3
:10110000F8C8232B09F046C03091F40A311175C09C
:101110004091F50A442309F4BBC0C73F09F4B6C1A6
:101120009091F60A992309F440C11092F60A1092A0
:101130004A0A1092490AC23F09F4AEC108F456C1E6
:10114000C33F09F49CC1C63F09F050C1E1E0F0E0A3
:10115000F093480AE093470A8C2FCBD88091490A34
:1011600090914A0A019690934A0A8093490ADC01B9
:101170002091470A3091480A2A173B0709F0BCCF53
:101180001092F50AB9CF1092FE0A1092FD0AC09390
:10119000020BB2CF1092FE0A1092FD0ACF91089571
:1011A0001092FE0A1092FD0A2091040B3091050B5B
:1011B00022272C2B3093050B2093040B9DCF1092EC
:1011C000FE0A1092FD0A8C2F90E0982F8827F0914C
:1011D000040B8F2B9093050B8093040B8DCF1092F3
:1011E000FE0A1092FD0AC0930C0B86CF1092FE0AE5
:1011F0001092FD0AC093010B7FCFF091F60AFF23F6
:10120000B1F11092F60A10924A0A1092490A7C2F04
:10121000707F703B09F4DAC088F0703D09F466C055
:1012200008F461C0703E09F4D1C0703F81F410929F
:10123000F40AC091090BC093080B5ECF703909F412
:10124000C5C0703A09F4C2C0703809F4BFC0E1E00B
:10125000F0E0F0934A0AE093490A5091080BBEE08F
:101260005B9FF0011124E55BF54F87A142D84091C7
:10127000490A50914A0A2091470A3091480A421778
:10128000530708F442C04217530709F035CFCFCFB8
:101290005091EF0A2091FB0A3091FC0A552309F482
:1012A00046C02130310509F4C1C02230310509F4AE
:1012B000DAC0232B09F020CF1092EB0AC03F08F0D0
:1012C000F5C061E070E07093FC0A6093FB0AC11105
:1012D000F4C051E05093F90A8C2F90E09093E10A0A
:1012E0008093E00A09CF703C09F0B1CF3091080B30
:1012F0009EE0399FF0011124E55BF54FC7A342E062
:1013000050E05093480A4093470A8C2F0E9479017D
:101310004091490A50914A0A4F5F5F4F50934A0AE1
:101320004093490A2091470A3091480AACCF2115D1
:10133000310509F460C02130310509F0DDCE60913E
:10134000080B70E0CB01880F991FFC01EE0FFF1F07
:10135000EE0FFF1FEE0FFF1FE81BF90BE55BF54FCC
:10136000A0A941E04A0F40AB50E05093460A409399
:10137000450A4130510509F4A3C0FC01EE0FFF1FDF
:10138000EE0FFF1FEE0FFF1FE81BF90BE55BF54F9C
:10139000E40FF51FC6A38091470A9091480A4817A9
:1013A000590709F0A9CECF91B7CD2091470A3091C6
:1013B000480A2115310509F4CFCEA091490AB09110
:1013C0004A0AA217B30708F0D7CEC6CE6091080B21
:1013D0008EE0689FF0011124E55BF54FC7A3A3E001
:1013E000B0E0B093480AA093470A8FCF1092480A02
:1013F0001092470AB1CEC03F08F058C0A1E0B0E05B
:10140000B093FC0AA093FB0AC1114DC091E09093E8
:10141000F90AF091080B7EE0F79FF0011124E55BDB
:10142000F54F8C2F90E096A385A366CE38E03C0F55
:10143000323008F46AC024E02093ED0A8091EB0A70
:10144000E82FF0E0EE51F54FC0838F5F8093EB0AF9
:10145000C07FC03E09F0A7CFA2E0B0E0B093FC0A85
:10146000A093FB0A49CEB091EB0AEB2FF0E0EE51CE
:10147000F54FC083BF5FB093EB0ACF914DCD42E0F3
:1014800050E05093480A4093470A66CE87EF0E9487
:1014900079011092F50A30CE63E070E07093480A4B
:1014A0006093470A59CE1092F90AB3CF4FEF5FEF1E
:1014B0005093FC0A4093FB0A76CF1092F90A0CCFA6
:1014C000BC2FB07FB03B09F442C010F1B03D09F42D
:1014D00052C008F44EC0B03ED1F1B03FF9F4C83F5D
:1014E00008F45CC051E052ABC7A73093480A209380
:1014F000470A4091450A5091460A4130510509F08A
:101500003CCFC03F08F047CF38CF1092ED0A96CFBE
:10151000B039E9F0B03AD9F0B038C9F042E050E063
:101520005093460A4093450A3EE0369FF001379FAC
:10153000F00D1124E55BF54FAE5FA0AB63E062AB4D
:1015400021A930E03093480A2093470AD2CF3EE0E9
:10155000369FF001379FF00D1124E55BF54F63E0F6
:1015600062AB61AB23E030E03093480A2093470A36
:10157000C0CFB03C99F62EE0269FF001279FF00DDA
:101580001124E55BF54FA3E0A2ABB2E0B1AB42E0C2
:1015900050E05093480A4093470AABCF72E072ABD9
:1015A000C7A73093480A2093470AA3CFCF938091CF
:1015B0006E0A803208F08052E82FF0E0E55BF54FCC
:1015C000C3818F5F80936E0A90916F0A91509093C0
:1015D0006F0A20914B0A2223C9F030E13C0F3830CA
:1015E000C0F47C2F77707093080B1092FC0A109255
:1015F000FB0A1092EF0AA4E0AC0FA33038F4EFEF2F
:10160000FFEFF093FC0AE093FB0A86DC8C2FCF916E
:101610000895C93F81F71092FC0A1092FB0A41E03D
:101620004093EF0A5091ED0A511105C01092ED0A56
:101630008C2FCF9108954093F10A8091E20A84DAC9
:101640006091FD0A7091FE0A6115710579F3809130
:10165000E30A18DDEBCFCF93DF9300D01F92CDB715
:10166000DEB76115710561F48130C1F0F8F08230A8
:1016700039F46A837B838983FEDB89817B816A817C
:10168000E82FF0E0EE0FFF1FEB5EF44F71836083F5
:101690000F900F900F90DF91CF9108956A837B8315
:1016A0008983CBDC6A817B818981EACF61E070E04C
:1016B000E7CFE82FF0E0EE0FFF1FEB5EF44F118253
:1016C000108208951092160B1092150B1092180BA1
:1016D0001092170B10921A0B1092190B08951F926B
:1016E0000F920FB60F9211240BB60F922F933F93C8
:1016F0004F935F936F937F938F939F93AF93BF931A
:10170000EF93FF9380911B0B90911C0B009729F096
:10171000019790931C0B80931B0BA091150BB0911C
:10172000160B109739F01197B093160BA093150B69
:10173000109771F1E091170BF091180B309739F079
:101740003197F093180BE093170B309719F18091B4
:10175000190B90911A0B009741F0019790931A0B77
:101760008093190B892B09F486DBFF91EF91BF91D0
:10177000AF919F918F917F916F915F914F913F9129
:101780002F910F900BBE0F900FBE0F901F901895CA
:10179000D3DBD0CF52DCDBCFAA1BBB1B51E107C090
:1017A000AA1FBB1FA617B70710F0A61BB70B881FF1
:1017B000991F5A95A9F780959095BC01CD01089580
:1017C000EE0FFF1F0590F491E02D0994F894FFCFE0
:1017D000800000F041101612200000202020204838
:1017E0006172644D50552076302E31202020204AE1
:1017F000F7000000000000000000000000000000F2
:1018000000000000000000000000000000000000D8
:1018100000000000000000000000000000000000C8
:1018200000000000000000000000000000000000B8
:1018300000000000000000000000000000000000A8
:101840000000000000000000000000000000000098
:101850000000000000000000000000000000000088
:101860000000000000000000000000000000000078
:10187000000003030303030303030303030303033E
:101880000303030303030303030303030303030328
:101890000303030303030303030303030303030318
:1018A0000303030303030303030303030303030308
:1018B0000303020202020202020202020202020206
:1018C00002020202020202020202020202020202F8
:1018D00002020303030303030303030303030303DA
:1018E00003030002030200000100010001010100E6
:0218F0000100F5
:00000001FF
