S00F0000486172644D50552E73726563A4
S113000006C1000022C1000020C100001EC1000082
S11300101CC100001AC1000018C1000016C1000074
S113002014C1000012C1000010C100000EC1000084
S11300300CC100000C94B70A08C1000006C10000FE
S113004004C1000002C1000000C10000FEC00000A5
S1130050FCC00000FAC00000F8C00000F6C00000B8
S1130060F4C00000F2C00000F0C00000EEC00000C8
S1130070ECC00000EAC00000E8C00000E6C00000D8
S1130080E4C00000E2C00000E0C0000053068805A0
S113009088058805880588058805880588058805F4
S11300A088058805880588058805880588058805E4
S11300B088058805880588058805880588058805D4
S11300C088058805880588058805880588058805C4
S11300D088058805880588058805880588058805B4
S11300E088058805880588058805880588058805A4
S11300F08805880588058805880588058805880594
S11301008805880588058805880588058805880583
S11301108805880588058805880588058805880573
S11301208805880588058805880556063F068805DC
S113013088058805880547064306880588058805D7
S11301408805880588058805880588058805880543
S11301508805880588058805880588058805880533
S1130160880588054A063006260688051B06880584
S11301701706880588058805880588058805E70524
S1130180E7058805880588058805880588058805A4
S11301908805E305DF05DB05D705D305CF05CB05CA
S11301A088058805880588058805880588058805E3
S11301B088058805880588058805880588058805D3
S11301C0880588058805880588058805C305BC0554
S11301D0BC05BC058805BC058805BC05BC058805AF
S11301E0880588058805BC05BC05BC05BC058805D3
S11301F08805880588058805880588058805880593
S1130200880588058805880588058805AF051124B3
S11302101FBECFEFD0E4DEBFCDBF12E0A0E0B1E05F
S1130220E0E6F6E100E00BBF02C007900D92A232B7
S1130230B107D9F727E0A2E2B2E001C01D92AC3BBE
S1130240B207E1F703D00C942E0BDACE8FEF82B90C
S113025098EF95B928E124B988B98BB92093C100E6
S113026047E250E05093C5004093C40030918100B0
S113027038603093810050916F00526050936F004A
S1130280789468E873E170938900609388007091B2
S1130290810071607093810060E080E00E94500AE8
S11302A0CFEF199914C01A991BC0ACD38823C9F392
S11302B01899F7CF0E946609F894C1B982B92B98AE
S11302C000C000002B9A11B87894199BECCFF894D5
S11302D02C9800C0000080B12C9A75D51A9BE5CFEC
S11302E0F8942C9800C0000080B12C9A8ED3DDCFF6
S11302F0CF93DF9340913E0650913F0660914006B4
S113030070914106452B462B472B41F020911A074B
S113031030911B072115310509F05BC0883F58F067
S1130320809330027091C00075FFFCCF8093C600AB
S1130330DF91CF910895C0912202D0912302C03F52
S1130340D10509F460C087FDEEC0209124023091EC
S113035025022115310561F3A0912602B0912702EF
S1130360AD014F5F5F4F5093270240932602FD017A
S1130370EE5DFD4F868342175307D0F2809142060B
S1130380882309F4F5C08091220290912302BC01D4
S1130390607F77276039710509F43EC1603B7105C0
S11303A009F4F5C0E8E2F2E0285D3D4F5091C00049
S11303B055FFFCCF71917093C600E217F307B1F7B4
S11303C021E030E03093270220932602DF91CF9181
S11303D008952150310930931B0720931A07C1EE69
S11303E0D4E02197F1F700C0000060911A077091E2
S11303F01B07DB011197B0931B07A0931A07611524
S1130400710569F78BCF87FD2EC0C0913806D09156
S11304103906DE011196B0933906A0933806FE0121
S1130420EE5DFD4F868BA115D4E0BD0709F080CFAA
S1130430C8E3D2E03091C00035FFFCCF599150930E
S1130440C60086E0C833D807A9F71092390610927F
S1130450380680913A0690913B06019690933B06AC
S113046080933A0665CFE0913806F0913906DF01B2
S11304701196B0933906A09338069F012E5D3D4F27
S113048097EFE9019E8B40913E0650913F066091A3
S1130490400670914106411551056105710571F0E1
S11304A0C0913A06D0913B06CD2B41F43397369751
S11304B028F4D0913902D13409F4FFC0109771F0B7
S11304C0E8E3F2E0295E3F4F9091C00095FFFCCF36
S11304D0C191C093C600E217F307B1F7452B462B31
S11304E0472B09F120913A0630913B06211531053D
S11304F041F450913D025F3709F4D8C0503109F4FA
S1130500C3C0322F2227330F330F2A0F3B1F3695D8
S113051027952E5F3F4F220F331F220F331F309337
S11305201B0720931A07482F50E05093230240934F
S113053022021092270210922602EA01CE5DDE4FBB
S1130540288130E03093250220932402403F510556
S113055009F0FFCEB0EFB093380261E070E0709321
S113056039066093380610923B0610923A06F1CE93
S1130570C8E2D2E0285D3D4FF091C000F5FFFCCF0A
S113058099919093C600C217D307B1F719CFD091B0
S11305902902DB57D53008F005CF8F7099272091B9
S11305A00001207F282B20930001EC01CC0FDD1FDC
S11305B0880F991F880F991F880F991FC80FD91F7B
S11305C0C45ED84F3881332309F45BC0DE01129630
S11305D080E090E040910201FD91F093010160916F
S11305E0C00065FFFCCF2093C600E091010150914B
S11305F0C00055FFFCCFE093C6007091C00075FFAA
S1130600FCCF4093C6000196288130E082179307FF
S1130610C0F520910001E0CFB0912A02BB2311F173
S11306208F709927EC01CC0FDD1F880F991F880F5D
S1130630991F880F991FC80FD91FC45ED84F99817D
S113064081E0890F8983DE01A90FB11D4091290240
S113065012964C93883009F41982F881F83010F41A
S1130660FF5FF883E8E2F2E0285D3D4FD091C000DF
S1130670D5FFFCCF61916093C600E217F307B1F791
S11306809FCE188219829CCE70913E02711139CF8F
S113069060913F026430B9F0613009F032CFA8E7CD
S11306A0B0E0B0931B07A0931A073DCFE8E8F4E04D
S11306B0F0931B07E0931A0736CFF0913B02F63113
S11306C009F0FCCE30CF44E452E050931B07409332
S11306D01A0729CF809143060895CF93DF93109290
S11306E03D0610923C0610923E0610923F06109270
S11306F040061092410610921B0710921A0781308F
S113070039F11092230210922202109227021092C1
S1130710260210922502109224026093420621E0E0
S113072020934306C3E0D1E08991E2DD81E0C13248
S1130730D807D1F7EDE1F7E0DF0111971C921082A1
S11307403A9687E0ED3BF807B9F7DF91CF9108952A
S113075081E090E0A0E0B0E080933E0690933F06F5
S1130760A0934006B0934106CCCF81E090914A0615
S1130770911101C080E080934C0682E0E2D6109291
S1130780F9061092F3061092F4061092ED061092F8
S1130790EE061092EF061092F1061092F6061092F1
S11307A0F7062FEF2093010710920007109202071B
S11307B04FEF5FEF50930407409303071092FB063B
S11307C01092FA061092FD061092FC061092F006A2
S11307D034E630930C0730930B075EE150930A071D
S11307E05093090768E260930E0760930D07109217
S11307F00F07109212077CE37093100710921107F1
S113080010926E0610926D0610920607109205075C
S11308101092E0061092DF061092EC06ECE7F6E088
S11308201082DF011D971D921C923E9686E0EC3EDD
S1130830F807B1F7089590916E06903298F42091DC
S11308406D06E22FE90F203218F0205220936D0636
S1130850E03208F0E0529F5F90936E06F0E0E65BB2
S1130860F94F838308958091E1068C3F91F01092B3
S1130870EA0620EF30E03093E0062093DF06409153
S113088005075091060752605093060740930507E9
S113089008951092E1061092ED066091050770919B
S11308A006077D7F70930607609305073091020762
S11308B03111EECF706170930607609305070895B8
S11308C0BF92CF92DF92EF92FF920F931F93CF9339
S11308D0DF93B82E082F10E0000F111F9801220F8C
S11308E0331F220F331F220F331F201B310BF9013B
S11308F0E65BF94F82A9813009F462C08330C1F408
S1130900C0A8CC20A9F0A9014F58594F7A01C0E0E2
S1130910D0E06F0190E3C90ED11CF70181917F01F2
S1130920E7DC2196F601208130E0C217D307A8F353
S1130930D09002072D2D30E00B2C02C03595279561
S11309400A94E2F720FD19C0D1100DC00091ED0604
S1130950011109C0A0910507B0910607B061B093D9
S11309600607A0930507DF91CF911F910F91FF9088
S1130970EF90DF90CF90BF900895E801CC0FDD1F7A
S1130980CC0FDD1FCC0FDD1FC01BD10BC65BD94FB5
S113099018AA1AAA20EF30E03EA32DA381E090E02C
S11309A002C0880F991FBA94E2F74091050750914D
S11309B00607842B952B9093060780930507D3CFC6
S11309C087A58C3F09F0B4CF93DC81E090E00B2C39
S11309D002C0880F991F0A94E2F7F82EF094309120
S11309E00207F322F0920207809590956091050723
S11309F07091060786239723909306078093050733
S1130A00DF2C98CF80916E060895CF93C82F8091E4
S1130A10F2068823B9F02091FE063091FF06232BBD
S1130A2021F4CF3359F0CF3F49F08C2F90E0019659
S1130A309093FF068093FE06CF91089581E081D5BF
S1130A401092F206C03348F5FC2FF370F23009F42B
S1130A5079C0F33009F464C0F13011F48CEF48DC50
S1130A60CC70C43009F45FC0C83009F051C081E0D3
S1130A708093F10680E065D520910B07C0910907AA
S1130A802C9FB001112480E992EECED580E02BD5C5
S1130A9010926E0610926D063BC030E63C0F383063
S1130AA028F5C7704C2F50E02091010730E002C0B8
S1130AB035952795CA95E2F720FF2AC0440F551FA4
S1130AC0FA01EE0FFF1FEE0FFF1FEE0FFF1FE41BD7
S1130AD0F50BE65BF94F85A1B091F006BB2309F451
S1130AE0E8C01092F0068EEFCF91A5CE40E34C0FF4
S1130AF0483058F57091070770930807C770C09382
S1130B00070791E09093F3061092F4069093F5068C
S1130B10A091F006AA2339F31092F006CF9108951C
S1130B208BEFE6DB9DCF80E00CD51092F106C0EB95
S1130B308C2FDEDB8BE7DCDB80E0DADBCF5FCF3BC7
S1130B40B9F7E6CF8AEFD4DB8BCF4C2F50E0FA0114
S1130B50FF97E13CF105E0F6EA5BFF4F79C56CE6EF
S1130B6070E081E0C0D451E05093F206FEDD609164
S1130B704C066111CDCF60CF8C2F90E09093FD0691
S1130B808093FC06C5CF1092F30671E07093F406CF
S1130B907093F506BDCF90E390930907B9CFAAE20D
S1130BA0A0930907B5CFB4E2B0930907B1CFFEE132
S1130BB0F0930907ADCFC8E1C0930907A9CF82E13B
S1130BC080930907A5CF2CE020930907A1CFC0EBA0
S1130BD08C2F8EDB8BE78CDB80E08ADBCF5FCF3B17
S1130BE0B9F7ECE7F6E0DF011D971D921C92108225
S1130BF03E9686E0EC3EF807B1F71092E0061092BC
S1130C00DF061092EC063091EF063093ED063111B9
S1130C1002C01092EE064091000740930207109222
S1130C2006071092050751E05093F70671CF68E26A
S1130C3060930D076DCF7091F006772309F44BC0D4
S1130C401092F00680910B07CF91F5CDB091F0068C
S1130C50BB2309F449C01092F00681E0CF91EBCD9B
S1130C6080914B06882339F1E091F006E11139CFE8
S1130C7085E1E1DDA091F006A1114ECF34CF61E012
S1130C806093EF0645CF51E05093120741CF109285
S1130C9012073ECF3091F0063323B1F01092F006E4
S1130CA080E0CF91C8CD10924C06C6CE1092EF06CC
S1130CB02FCFC1DD2DCF2091F0062223E1F0109239
S1130CC0F00685E1CF91B7CD8EEFB5DD4091F0060A
S1130CD0411122CFE5CF8EEFAEDD80910B079091CD
S1130CE0F006911119CFB0CF8EEFA5DDF091F0068B
S1130CF0F11112CFB2CF8EEF9EDDC091F006C1117B
S1130D000BCFDFCFCF93DF931092F9068091F806D3
S1130D10882339F01092F8062091EE06222339F147
S1130D20A2DD1092F7063091F1063323E9F06091C9
S1130D3005077091060761157105B1F020E030E0F8
S1130D40E1E0F0E0822FEF01022E02C0CC0FDD1FA4
S1130D500A94E2F7AE0146235723452B61F42F5F33
S1130D603F4F2131310571F7DF91CF910895809183
S1130D700707A6DDD6CF9091F006992369F010926B
S1130D80F006C095D095C623D723D0930607C09309
S1130D900507DF91CF91089580514DDD60910507DE
S1130DA070910607EECF8091F806811105C020915D
S1130DB0F90621110895A6CF31E03093F90661E0D8
S1130DC070E082E090C3CF93C82F80914C068823B3
S1130DD0A1F12091FC063091FD06273E310509F46E
S1130DE095C0E8F02D3E310509F489C048F12E3E46
S1130DF0310509F475C02F3E3105C9F41092FD0682
S1130E001092FC068C2F90E0982F8827F09103070E
S1130E108F2B9093040780930307CF910895203E6E
S1130E203105C1F0213E310511F0232BD1F0109290
S1130E30FD061092FC06CF9108958C2FCF9158CACD
S1130E402C3E3105A1F71092FD061092FC06C093CA
S1130E500007E3CF1092FD061092FC06C0930B0727
S1130E60DCCF3091F30631115AC04091F40644238B
S1130E7009F4A0C0C73F09F49AC19091F5069923DB
S1130E8009F424C11092F5061092490610924806FE
S1130E90C23F09F491C108F43AC1C33F09F480C1C7
S1130EA0C63F09F034C1E1E0F0E0F0934706E09377
S1130EB046068C2F1DDA80914806909149060196CA
S1130EC09093490680934806DC01209146063091B0
S1130ED047062A173B0709F0A0CF1092F4069DCFCE
S1130EE01092FD061092FC0620910307309104072E
S1130EF022272C2B30930407209303078ECF1092C4
S1130F00FD061092FC06C093010787CF1092FD06E0
S1130F101092FC06C695C695C09310077ECFF0913B
S1130F20F506FF23B1F11092F506109249061092CE
S1130F3048067C2F707F703B09F4D9C088F0703D5F
S1130F4009F466C008F461C0703E09F4D0C0703F73
S1130F5081F41092F306C0910807C09307075DCF90
S1130F60703909F4C4C0703A09F4C1C0703809F486
S1130F70BEC0E1E0F0E0F0934906E09348065091EA
S1130F800707BEE05B9FF0011124E65BF94F87A1E0
S1130F90AFD94091480650914906209146063091B8
S1130FA047064217530708F442C04217530709F093
S1130FB034CFCFCF5091EE062091FA063091FB0644
S1130FC0552309F445C02130310509F4C0C022304D
S1130FD0310509F4D9C0232B09F01FCF1092EA067A
S1130FE0C03F08F0F3C061E070E07093FB066093CB
S1130FF0FA06C111F2C051E05093F8068C2F90E02C
S11310009093E0068093DF0608CF703C09F0B1CFDF
S1131010309107079EE0399FF0011124E65BF94FF8
S1131020C7A342E050E050934706409346068C2FF6
S11310305FD940914806509149064F5F5F4F5093E6
S11310404906409348062091460630914706ADCFA5
S11310502115310509F460C02130310509F0DDCED8
S11310606091070770E0CB01880F991FFC01EE0F18
S1131070FF1FEE0FFF1FEE0FFF1FE81BF90BE65BD0
S1131080F94FA0A941E04A0F40AB50E05093450608
S1131090409344064130510509F4A2C0FC01EE0F0F
S11310A0FF1FEE0FFF1FEE0FFF1FE81BF90BE65BA0
S11310B0F94FE40FF51FC6A38091460690914706A9
S11310C04817590709F0A9CECF916DCE2091460655
S11310D0309147062115310509F4EBCEA09148065D
S11310E0B0914906A217B30708F0F3CEE2CE60919F
S11310F007078EE0689FF0011124E65BF94FC7A350
S1131100A3E0B0E0B0934706A093460690CF1092B8
S1131110470610924606CDCEC03F08F057C0A1E066
S1131120B0E0B093FB06A093FA06C1114CC091E065
S11311309093F806F09107077EE0F79FF0011124E1
S1131140E65BF94F8C2F90E096A385A366CE38E03A
S11311503C0F323008F469C024E02093EC068091FF
S1131160EA06E82FF0E0EF51F94FC0838F5F8093D8
S1131170EA06C07FC03E09F0A7CFA2E0B0E0B0937A
S1131180FB06A093FA0649CEB091EA06EB2FF0E0F5
S1131190EF51F94FC083BF5FB093EA06CF9103CEFE
S11311A042E050E0509347064093460682CE87EFD4
S11311B09FD81092F40631CE63E070E07093470636
S11311C06093460676CE1092F806B4CF4FEF5FEFE9
S11311D05093FB064093FA0677CF1092F8060ECF91
S11311E0BC2FB07FB03B09F457C008F44FC0B03DEA
S11311F0D1F1F0F0B03E09F44FC0B03FD9F4C83F8C
S113120008F45CC051E052ABC7A730934706209363
S1131210460640914406509145064130510509F077
S11312203DCFC03F08F048CF39CF1092EC0697CF9E
S1131230B03CC9F042E050E0509345064093440668
S11312403EE0369FF001379FF00D1124E65BF94F25
S1131250AE5FA0AB63E062AB21A930E030934706F8
S113126020934606D6CF2EE0269FF001279FF00D4F
S11312701124E65BF94FA3E0A2ABB2E0B1AB42E0CC
S113128050E05093470640934606C3CFB03921F04F
S1131290B03A11F0B03871F63EE0369FF001379F56
S11312A0F00D1124E65BF94F63E062AB61AB23E020
S11312B030E03093470620934606ABCF72E072AB22
S11312C0C7A73093470620934606A3CFCF938091B8
S11312D06E06811133C0CEEF20914A062223C9F055
S11312E030E13C0F3830C0F47C2F777070930707DF
S11312F01092FB061092FA061092EE06A4E0AC0FD0
S1131300A33038F4EFEFFFEFF093FB06E093FA0617
S11313104ADD8C2FCF910895C93F81F71092FB06C7
S11313201092FA0641E04093EE065091EC065111FA
S113133016C01092EC068C2FCF91089590916D06F3
S1131340903208F09052E92FF0E0E65BF94FC38148
S11313509F5F90936D06815080936E06BDCF40933E
S1131360F0068091E10651DB6091FC067091FD0668
S113137061157105F1F28091E20625DDDACF0F9354
S11313801F93CF93DF9380914C06882309F463C0A5
S11313900091F706011153C00FE616E0C0E0D0E05B
S11313A020910207822F90E00C2E02C0959587951C
S11313B00A94E2F780FF0AC0F801A081B181119775
S11313C0B183A0831A161B060CF053C02196025F4A
S11313D01F4FC830D10521F71091ED06112369F094
S11313E0C091DF06D091E0062197D093E006C09328
S11313F0DF061C161D060CF041C040911207442361
S1131400A1F0509111075F5F50931107909110075D
S1131410591758F01092110760910507709106074B
S1131420706270930607609305077091F706711157
S113143006C08091050790910607892BE9F480E0A6
S113144080D0B0910B07D0910907BD9FB001112442
S11314506115710529F4DF91CF911F910F910895C2
S113146080E992EEE1D080E0DF91CF911F910F915E
S11314703AC08C2F25DAAACF45DCE1CFF4D9BDCF11
S11314801092F2068091FE069091FF06009709F4EF
S113149008958150BADA1092FF061092FE0608955C
S11314A0CF93DF9300D0CDB7DEB76A83898352D060
S11314B06A81898112D90ED9811105C00F900F90CC
S11314C0DF91CF91089510926E0610926D061092DE
S11314D04C0610924B0681E080934A060F900F90C1
S11314E0DF91CF9142C9CF93DF9300D01F92CDB744
S11314F0DEB76115710561F48130C1F0F8F0823016
S113150039F46A837B838983FDDB89817B816A81EA
S1131510E82FF0E0EE0FFF1FEC5EF84F718360835D
S11315200F900F900F90DF91CF9108956A837B8382
S11315308983A6DF6A817B818981EACF61E070E0DB
S1131540E7CFE82FF0E0EE0FFF1FEC5EF84F1182BB
S1131550108208951092150710921407109217071D
S113156010921607109219071092180708951F92E7
S11315700F920FB60F9211240BB60F922F933F9335
S11315804F935F936F937F938F939F93AF93BF9387
S1131590EF93FF9380911A0790911B07009729F00E
S11315A0019790931B0780931A07A0911407B09199
S11315B01507109739F01197B0931507A0931407E6
S11315C0109771F1E0911607F0911707309739F0F1
S11315D03197F0931707E0931607309719F180912C
S11315E0180790911907009741F0019790931907F4
S11315F080931807892B09F485DBFF91EF91BF9144
S1131600AF919F918F917F916F915F914F913F9196
S11316102F910F900BBE0F900FBE0F901F90189537
S1131620AEDED0CF2DDFDBCFAA1BBB1B51E107C041
S1131630AA1FBB1FA617B70710F0A61BB70B881F5E
S1131640991F5A95A9F780959095BC01CD010895ED
S1131650EE0FFF1F0590F491E02D0994F894FFCF4D
S1131660800000F0411016122000002020202048A5
S11316706172644D50552076302E31202020204A4E
S1131680F70000000000000000000000000000005F
S11316900000000000000000000000000000000046
S11316A00000000000000000000000000000000036
S11316B00000000000000000000000000000000026
S11316C00000000000000000000000000000000016
S11316D00000000000000000000000000000000006
S11316E000000000000000000000000000000000F6
S11316F000000000000000000000000000000000E6
S113170000000303030303030303030303030303AB
S11317100303030303030303030303030303030395
S11317200303030303030303030303030303030385
S11317300303030303030303030303030303030375
S11317400303020202020202020202020202020273
S11317500202020202020202020202020202020265
S11317600202030303030303030303030303030347
S11317700303000203020000010001000101010053
S1051780010062
S9030000FC
