S00F0000486172644D50552E73726563A4
S113000006C1000022C1000020C100001EC1000082
S11300101CC100001AC1000018C1000016C1000074
S113002014C1000012C1000010C100000EC1000084
S11300300CC100000C94EC0C08C1000006C10000C7
S113004004C1000002C1000000C10000FEC00000A5
S1130050FCC00000FAC00000F8C00000F6C00000B8
S1130060F4C00000F2C00000F0C00000EEC00000C8
S1130070ECC00000EAC00000E8C00000E6C00000D8
S1130080E4C00000E2C00000E0C00000F406F70590
S1130090F705F705F705F705F705F705F705F7057C
S11300A0F705F705F705F705F705F705F705F7056C
S11300B0F705F705F705F705F705F705F705F7055C
S11300C0F705F705F705F705F705F705F705F7054C
S11300D0F705F705F705F705F705F705F705F7053C
S11300E0F705F705F705F705F705F705F705F7052C
S11300F0F705F705F705F705F705F705F705F7051C
S1130100F705F705F705F705F705F705F705F7050B
S1130110F705F705F705F705F705F705F705F705FB
S1130120F705F705F705F705F705DB06D506F70527
S1130130F705F705F705E606E006F705F705F70501
S1130140F705F705F705F705F705F705F705F705CB
S1130150F705F705F705F705F705F705F705F705BB
S1130160F705F705EB06C606BC06F705B106F70565
S1130170AB06F705F705F705F705F705F705550687
S11301805506F705F705F705F705F705F705F7052C
S1130190F7054F06490643063D06370631062B068A
S11301A0F705F705F705F705F705F705F705F7056B
S11301B0F705F705F705F705F705F705F705F7055B
S11301C0F705F705F705F705F705F70521061806FE
S11301D018061806F7051806F70518061806F70591
S11301E0F705F705F7051806180618061806F705A3
S11301F0F705F705F705F705F705F705F705F7051B
S1130200F705F705F705F705F705F705EA051124DE
S11302101FBECFEFD0E4DEBFCDBF12E0A0E0B1E05F
S1130220EAECFAE100E00BBF02C007900D92A232A3
S1130230B107D9F727E0A2E2B2E001C01D92AE3BBC
S1130240B207E1F703D00C94630DDACE8FEF82B9D5
S113025098EF95B998E194B988B98BB99093C10096
S113026087E290E09093C5008093C4008091810060
S113027088608093810080916F00826080936F001A
S1130280789488E893E19093890080938800809122
S1130290810081608093810060E080E00E947E0C98
S11302A0CFEF199913C01A991AC0CCD3892BC9F36B
S11302B01899F7CF0E94FF0BC1B982B92B9882E03D
S11302C08A95F1F72B9A11B8199BEDCF2C9882E0FF
S11302D08A95F1F780B12C9AF9D71A9BE6CF2C981E
S11302E082E08A95F1F780B12C9AB1D3DECFCF9317
S11302F0DF9340913E0650913F0660914006709115
S11303004106452B462B472B91F020911C07309139
S11303101D07232B61F0C1EED4E02197F1F700C053
S1130320000020911C0730911D07232BA1F7883F63
S113033058F0809330029091C00095FFFCCF8093D9
S1130340C600DF91CF9108952091220230912302BB
S1130350203F310509F441C087FDCFC040912402FC
S1130360509125024115510561F3E0912602F09167
S11303702702BF016F5F7F4F7093270260932602AD
S1130380EE5DFD4F868364177507D8F280914206AF
S1130390882309F4D9C0C901807F99278039910540
S11303A009F41CC1803B910509F4DDC0E8E2F2E0E8
S11303B0485D5D4F8091C00085FFFCCF81918093A3
S11303C0C600E417F507B1F781E090E090932702A7
S11303D080932602DF91CF91089587FD2EC040912E
S11303E03806509139069A012F5F3F4F30933906F2
S11303F020933806FA01EE5DFD4F868B21153440BB
S113040009F09FCFE8E3F2E08091C00085FFFCCFC4
S113041081918093C60026E0E833F207A9F7109291
S113042039061092380680913A0690913B0601965F
S113043090933B0680933A0684CFE0913806F0917E
S11304403906DF011196B0933906A09338069F014F
S11304502E5D3D4F97EFE9019E8B40913E065091F2
S11304603F066091400670914106411551056105B2
S1130470710571F0C0913A06D0913B06CD2B41F441
S11304803397369728F490913902913409F4F4C0E3
S1130490109771F0E8E3F2E0295E3F4F9091C000BD
S11304A095FFFCCF91919093C600E217F307B1F743
S11304B0452B462B472B09F120913A0630913B06F8
S11304C02115310541F490913D029F3709F4CDC0C7
S11304D0903109F4B8C0322F2227330F330F2A0F7B
S11304E03B1F369527952E5F3F4F220F331F220F58
S11304F0331F30931D0720931C07282F30E03093BF
S11305002302209322021092270210922602F9015C
S1130510EE5DFE4F408150E050932502409324024B
S1130520203F310509F01ECF90EF9093380221E06F
S113053030E0309339062093380610923B0610922F
S11305403A0620EF30E00ECFE8E2F2E0485D5D4F7E
S11305508091C00085FFFCCF81918093C600E41791
S1130560F507B1F731CF809129028B57853008F018
S11305701DCF2F70332780910001807F822B8093C1
S11305800001F901EE0FFF1F220F331F220F331F4B
S1130590220F331FE20FF31FE25EF84F808188239E
S11305A0D1F0EF01229680E090E04991409301015F
S11305B0A0E0B1E04091C00045FFFCCF4D914093D5
S11305C0C60021E0A330B207A9F70196408150E0AC
S11305D08417950750F310821182F6CE80912A0277
S11305E0882311F12F703327F901EE0FFF1F220F1B
S11305F0331F220F331F220F331FE20FF31FE25E5C
S1130600F84F918181E0890F8183DF01A90FB11D2A
S11306109091290212969C93883009F4118280816A
S1130620883010F48F5F8083E8E2F2E0485D5D4F2C
S11306308091C00085FFFCCF81918093C600E417B0
S1130640F507B1F7C1CE90913E02911144CF90913C
S11306503F029430B9F0913009F03DCF28E730E003
S113066030931D0720931C0748CF28E834E03093CB
S11306701D0720931C0741CF90913B02963109F04E
S113068007CF3BCF24E432E030931D0720931C07AF
S113069034CF809143060895CF93DF9310923D06A3
S11306A010923C0610923E0610923F0610924006AD
S11306B01092410610921D0710921C07813009F414
S11306C05CC0109223021092220210922702109210
S11306D0260210922502109224026093420681E0C1
S11306E080934306C3E0D1E0899101DE81E0C13209
S11306F0D807D1F710921E0710921F0710922807EF
S113070010922907109232071092330710923C0777
S113071010923D0710924607109247071092500717
S11307201092510710925A0710925B0710926407B7
S11307301092650710926E0710926F071092780757
S113074010927907109282071092830710928C07F7
S113075010928D0710929607109297071092A00797
S11307601092A1071092AA071092AB071092B40737
S11307701092B507DF91CF91089581E090E0A0E059
S1130780B0E080933E0690933F06A0934006B0935A
S1130790410697CF81E090914A06911101C080E013
S11307A080934C0682E00E94D60C1092FB061092B5
S11307B0F5061092F6061092EF061092F0061092CB
S11307C0F1061092F3061092F8061092F9068FEFD4
S11307D08093030710920207109204078FEF9FEF94
S11307E090930607809305071092FD061092FC066D
S11307F01092FF061092FE061092F20684E6809391
S11308000E0780930D078EE180930C0780930B07EE
S113081088E28093100780930F07109211071092BB
S113082014078CE38093120710921307109270063A
S113083010926F0610926E0610926D0610920807C1
S1130840109207071092E2061092E1061092EE064B
S113085010927E06109272061092710610928C0607
S11308601092800610927F0610929A0610928E06BD
S113087010928D061092A80610929C0610929B0668
S11308801092B6061092AA061092A9061092C406F7
S11308901092B8061092B7061092D2061092C606AD
S11308A01092C5061092E0061092D4061092D30658
S11308B0089520916F063091700620323105F8F4C6
S11308C060916D0670916E06AB01420F531F60324A
S11308D0710530F06052710970936E0660936D0675
S11308E04032510510F0405251092F5F3F4F309371
S11308F0700620936F06FA01E65BF94F838308952F
S1130900BF92CF92DF92EF92FF920F931F93CF93F8
S1130910DF93B82E082F10E0000F111F9801220F4B
S1130920331F220F331F220F331F201B310BF901FA
S1130930E65BF94F84A9813009F462C08330C1F4C5
S113094082A98823A9F0C9018D58994F7C01C0E080
S1130950D0E06F0192E3C90ED11CF70181917F01B0
S1130960C6DC2196F601208130E0C217D307A8F334
S113097080910407282F30E00B2C02C03595279571
S11309800A94E2F720FD19C081110DC08091EF0691
S1130990811109C080910707909108079061909395
S11309A0080780930707DF91CF911F910F91FF9064
S11309B0EF90DF90CF90BF900895F801EE0FFF1FE6
S11309C0EE0FFF1FEE0FFF1FE01BF10BE65BF94F6D
S11309D012AA14AA80EF90E090A787A381E090E088
S11309E002C0880F991FBA94E2F72091070730914B
S11309F00807822B932B9093080780930707D3CF84
S1130A0081A98C3F09F0B4CF72DC81E090E00B2C1B
S1130A1002C0880F991F0A94E2F7482F409520914D
S1130A20040742234093040780959095209107077B
S1130A303091080782239323909308078093070734
S1130A40842F98CF80916F06909170060895CF936C
S1130A50C82F8091F4068823B9F0209100073091C3
S1130A600107232B21F4CF3359F0CF3F49F08C2FCA
S1130A7090E001969093010780930007CF91089529
S1130A8081E094D71092F406C033A8F58C2F8370BC
S1130A90823009F4CAC0833009F499C0813011F45A
S1130AA08CEF25DCCC70C43009F4A4C0C83009F044
S1130AB09EC081E08093F30680E078D760910D07B3
S1130AC080910B07689FB001112480E992EEE1D771
S1130AD080E03ED71092700610926F0610926E0658
S1130AE010926D068091F20681116DC080916F069F
S1130AF0909170062BC080E68C0F883008F04BC0B4
S1130B00C7704C2F50E02091030730E002C03595A8
S1130B102795CA95E2F720FF6AC0440F551FFA01D2
S1130B20EE0FFF1FEE0FFF1FEE0FFF1FE41BF50B71
S1130B30E65BF94F67A18091F206882309F457C157
S1130B401092F20680916F069091700680329105A2
S1130B5008F094CF40916D0650916E069C01240FCD
S1130B60351F4032510530F04052510950936E0602
S1130B7040936D062032310510F020523109019660
S1130B809093700680936F06F901E65BF94F8EEF40
S1130B908383CF91089580E38C0F883008F03BC0A5
S1130BA08091090780930A07C770C093090781E001
S1130BB08093F5061092F6068093F7068091F2066C
S1130BC0882309F493CF1092F206CF9108958BEF06
S1130BD08EDB68CF6CE670E081E0BAD681E080936A
S1130BE0F406D8DD80914C06882309F447CF809120
S1130BF0F206E6CF80E0DAD61092F306C0EB8C2F33
S1130C0076DB8BE774DB80E072DBCF5FCF3BB9F739
S1130C108091F206D5CF4C2F50E0FA01FF97E13CCA
S1130C20F10528F7EA5BFF4F48C78AEF60DB3ACF4C
S1130C308C2F90E09093FF068093FE068091F2063D
S1130C40BFCF1092F50681E08093F6068093F706F5
S1130C508091F206B5CF80E380930B078091F20672
S1130C60AFCF8AE280930B078091F206A9CF84E28A
S1130C7080930B078091F206A3CF8EE180930B073C
S1130C808091F2069DCF88E180930B078091F20654
S1130C9097CF82E180930B078091F20691CF8CE08D
S1130CA080930B078091F2068BCFC0EB8C2F1FDB58
S1130CB08BE71DDB80E01BDBCF5FCF3BB9F71092E6
S1130CC072061092710610927E061092800610929F
S1130CD07F0610928C0610928E0610928D0610924A
S1130CE09A0610929C0610929B061092A8061092E7
S1130CF0AA061092A9061092B6061092B80610928F
S1130D00B7061092C4061092C6061092C506109239
S1130D10D2061092D4061092D3061092E0061092D6
S1130D20E2061092E1061092EE068091F10680939D
S1130D30EF06811102C01092F006809102078093A1
S1130D400407109208071092070781E08093F906C0
S1130D508091F20635CF88E280930F078091F206E6
S1130D602FCF8091F206882309F478C01092F206FE
S1130D7080910D07CF919DCD8091F206882309F4CF
S1130D8076C01092F20681E0CF9193CD80914B060C
S1130D90882309F453C08091F206882309F46EC0B5
S1130DA01092F2068EEFCF9184CD81E08093F1060C
S1130DB08091F20605CF1092F1068091F20600CFE1
S1130DC081E0809314078091F206FACE1092140702
S1130DD08091F206F5CE8091F2068823C1F110923B
S1130DE0F20680E0CF9165CD10924C0647CE8091FB
S1130DF06F06909170068032910508F0A7CE40915D
S1130E006D0650916E069A01280F391F4032510524
S1130E1030F04052510950936E0640936D062032D3
S1130E20310510F020523109019690937006809399
S1130E306F06F901E65BF94F638358CE8091F206A1
S1130E40882319F11092F20685E1CF9132CD8EEF0D
S1130E5030DD8091F2068111B6CEC3CF8EEF29DD4D
S1130E6080910D079091F2069111ADCE83CF8EEF54
S1130E7020DD8091F2068111A6CE85CF85E119DDB2
S1130E808091F20681119FCE8DCF8EEF12DD80917D
S1130E90F206811198CED8CF1092FB068091FA0603
S1130EA08823E9F01092FA068091F006882309F469
S1130EB043C08091E3068C3F09F442C01092EC06D3
S1130EC080EF90E09093E2068093E106809107071B
S1130ED090910807926090930807809307071092F7
S1130EE0F9068091F306882331F1809107079091E8
S1130EF00807009701F180FD77C081FD79C082FD6C
S1130F007BC083FD7DC084FD7FC085FD81C086FDDF
S1130F1083C087FD85C090FD87C091FD89C092FD87
S1130F208BC093FD8DC094FD8FC095FD20C096FDB0
S1130F308FC097FD2EC0089580910907E1DCCFCFC3
S1130F401092E3061092EF0680910707909108072C
S1130F509D7F909308078093070720910407211130
S1130F60BECF90619093080780930707B8CF20E025
S1130F7030E2ADE04091F206442379F01092F2069B
S1130F8020953095282339233093080720930707A9
S1130F90089520E030E8AFE0EDCF40916F06509126
S1130FA070064032510560F7E0916D06F0916E06CF
S1130FB0BF01640F751FE032F10528F0B097F0937C
S1130FC06E06E0936D066032710510F0605271098F
S1130FD04F5F5F4F5093700640936F06FB01E65BD3
S1130FE0F94FA051A383CCCF21E030E0A0E0C2CFE1
S1130FF022E030E0A1E0BECF24E030E0A2E0BACFAE
S113100028E030E0A3E0B6CF20E130E0A4E0B2CFA6
S113101020E230E0A5E0AECF20E430E0A6E0AACFA5
S113102020E830E0A7E0A6CF20E031E0A8E0A2CF9E
S113103020E032E0A9E09ECF20E034E0AAE09ACF9D
S113104020E038E0ABE096CF20E030E1ACE092CF96
S113105020E030E4AEE08ECF8091FA06811105C025
S11310608091FB068111089517CF81E08093FB06E0
S113107061E070E082E06CC480914C06882389F0C2
S11310808091F906882371F080E090D460910D0777
S113109080910B07689FB00111246115710509F057
S11310A0BDC008958091040780FF0EC02091710691
S11310B030917206215031093093720620937106E3
S11310C0121613060CF0AFC081FF0EC020917F06EC
S11310D030918006215031093093800620937F0699
S11310E0121613060CF0A4C082FF0EC020918D06C8
S11310F030918E062150310930938E0620938D064F
S1131100121613060CF099C083FF0EC020919B06A3
S113111030919C062150310930939C0620939B0604
S1131120121613060CF08EC084FF0EC02091A9067F
S11311303091AA06215031093093AA062093A906BA
S1131140121613060CF083C085FF0EC02091B7065B
S11311503091B806215031093093B8062093B70670
S1131160121613060CF078C086FF0EC02091C50637
S11311703091C606215031093093C6062093C50626
S1131180121613060CF06DC090E0880F892F881F8B
S1131190990B892B69F08091D3069091D40601971D
S11311A09093D4068093D306181619060CF05EC0EB
S11311B08091EF06882369F08091E1069091E20620
S11311C001979093E2068093E106181619060CF035
S11311D050C0809114078823A1F0809113078F5F7A
S11311E08093130790911207891758F010921307F0
S11311F08091070790910807906290930807809365
S113120007078091F90681113FCF809107079091DC
S11312100807892B09F438CF3FDE36CF80E992EEF8
S113122038D480E095C380E06BDB809104074CCF19
S113123081E066DB8091040757CF82E061DB809117
S1131240040762CF83E05CDB809104076DCF84E008
S113125057DB8091040778CF85E052DB8091040747
S113126083CF86E04DDB809104078ECF87E048DB97
S11312709FCF8091E3068C3F91F01092EC0680EFB3
S113128090E09093E2068093E106809107079091A5
S11312900807926090930807809307079ACF1092EB
S11312A0E3061092EF0680910707909108079D7F4F
S11312B0909308078093070720910407211189CF91
S11312C09061909308078093070783CFCF93C82F2B
S11312D080914C068823A1F12091FE063091FF06EF
S11312E0273E310509F497C0E8F02D3E310509F495
S11312F08BC050F12E3E310509F477C02F3E3105E5
S1131300C9F41092FF061092FE068C2F90E0982FDD
S1131310882720910507822B909306078093050761
S1131320CF910895203E3105C9F0213E310511F0D9
S1131330232BD9F01092FF061092FE06CF91089548
S11313408C2FCF910C9477012C3E310599F7109294
S1131350FF061092FE06C0930207E2CF1092FF062A
S11313601092FE06C0930D07DBCF8091F506811124
S11313705BC08091F606882309F4A2C0C73F09F434
S1131380ACC18091F706882309F427C11092F706AF
S11313901092490610924806C23F09F497C108F416
S11313A03DC1C33F09F48BC1C63F09F037C181E099
S11313B090E090934706809346068C2F0E94770115
S11313C0809148069091490601969093490680932E
S11313D0480640914606509147069C014217530720
S11313E009F09ECF1092F6069BCF1092FF06109242
S11313F0FE06209105073091060722272C2B3093F7
S11314000607209305078CCF1092FF061092FE0664
S1131410C093030785CF1092FF061092FE06C6956F
S1131420C695C09312077CCF8091F7068823B9F143
S11314301092F70610924906109248068C2F807F6E
S1131440803B09F4DBC088F0803D09F467C008F4F0
S113145062C0803E09F4D2C0803F81F41092F50648
S113146080910A07809309075BCF803909F4C6C0CD
S1131470803A09F4C3C0803809F4C0C081E090E028
S11314809093490680934806E09109078EE0E89F0F
S1131490F0011124E65BF94F81A50E9477012091A8
S11314A04806309149064091460650914706241754
S11314B0350708F442C04217530709F031CFCECFA5
S11314C08091F0062091FC063091FD06882309F4F2
S11314D046C02130310509F4C1C02230310509F478
S11314E0DAC0232B09F01CCF1092EC06C03F08F0A1
S11314F0FDC081E090E09093FD068093FC06C1114D
S1131500FCC081E08093FA068C2F90E09093E20671
S11315108093E10605CF803C09F0B0CFE091090744
S11315208EE0E89FF0011124E65BF94FC1A782E049
S113153090E090934706809346068C2F0E94770193
S113154020914806309149062F5F3F4F309349065A
S1131550209348064091460650914706ACCF21158A
S1131560310509F460C02130310509F0D9CE60910C
S1131570090770E0CB01880F991FFC01EE0FFF1FD4
S1131580EE0FFF1FEE0FFF1FE81BF90BE65BF94F91
S1131590A2A941E04A0F42AB50E050934506409364
S11315A044064130510509F4ABC0FC01EE0FFF1FA6
S11315B0EE0FFF1FEE0FFF1FE81BF90BE65BF94F61
S11315C0E40FF51FC0A7809146069091470648177F
S11315D0590709F0A5CECF913FCD409146065091D1
S11315E047064115510509F4E8CE2091480630918B
S11315F049062417350708F0F1CEDFCEE09109073C
S11316008EE0E89FF0011124E65BF94FC1A783E067
S113161090E090934706809346068FCF109247063A
S113162010924606CACEC03F08F060C081E090E048
S11316309093FD068093FC06C11155C081E0809310
S1131640FA06E09109078EE0E89FF0011124E65BB9
S1131650F94F8C2F90E090A787A362CE88E08C0F7F
S1131660823008F473C084E08093EE068091EC0627
S1131670E82FF0E0ED51F94FC0838F5F8093EC06C3
S1131680C07FC03E09F0A7CF82E090E09093FD06B2
S11316908093FC0645CE8091EC06E82FF0E0ED51F6
S11316A0F94FC0838F5F8093EC068091FA06811115
S11316B050C08091FB06811133CECF91EDCB82E0F7
S11316C090E0909347068093460677CE83E090E0BF
S11316D0909347068093460670CE87EF0E94770169
S11316E01092F6061DCE1092FA06ABCF8FEF9FEF45
S11316F09093FD068093FC066ECF1092FA0604CFF9
S11317004C2F407F403B09F460C008F458C0403D72
S113171009F442C030F1403E09F457C0403F19F586
S1131720C83F08F464C041E044ABC1AB3093470602
S11317302093460640914406509145064130510598
S113174009F033CFC03F08F03ECF2FCF1092EE0602
S11317508DCF81E08093FB0661E070E082E0CF9161
S1131760F7C0403CC9F022E030E0309345062093B6
S113177044062EE0269FF001279FF00D1124E65B1E
S1131780F94FAE5FA2AB23E024AB23A930E0309342
S1131790470620934606CECF2EE0269FF001279FD2
S11317A0F00D1124E65BF94F23E024AB22E023ABD8
S11317B022E030E03093470620934606BBCF403901
S11317C021F0403A11F0403871F62EE0269FF001E6
S11317D0279FF00D1124E65BF94F23E024AB23ABE4
S11317E023E030E03093470620934606A3CF42E03F
S11317F044ABC1AB30934706209346069BCFCF93AF
S113180020916D0630916E062032310510F0205281
S11318103109F901E65BF94FC3812F5F3F4F3093E4
S11318206E0620936D0620916F063091700621504C
S113183031093093700620936F0680914A068823FD
S113184009F180E18C0F883000F58C2F877080932C
S113185009071092FD061092FC061092F00684E02F
S11318608C0F833078F42FEF3FEF3093FD062093F5
S1131870FC068091FA0681111AC08091FB06811141
S113188001C00ADB8C2FCF910895C93F41F7109214
S1131890FD061092FC0681E08093F0069091EE061E
S11318A091110DC01092EE068C2FCF91089581E016
S11318B08093FB0661E070E082E04AD0E3CF80933E
S11318C0F2068091E306C3D82091FE063091FF060C
S11318D0232B41F38091E406F9DCE4CF1092F40663
S11318E08091000790910107009709F408958150B1
S11318F0AED810920107109200070895CF93DF939A
S113190000D0CDB7DEB76A83898359D06A818981D3
S11319100E944C030E944903811105C00F900F904F
S1131920DF91CF9108951092700610926F06109275
S11319306E0610926D0610924C0610924B0681E0D2
S113194080934A060F900F90DF91CF910C94CA03B5
S1131950CF93DF9300D01F92CDB7DEB76115710529
S113196061F48130C1F0F8F0823039F46A837B830A
S1131970898392DA89817B816A81E82FF0E0EE0F16
S1131980FF1FEA5EF84F718360830F900F900F90F2
S1131990DF91CF9108956A837B8389839FDF6A8176
S11319A07B818981EACF61E070E0E7CFE82FF0E046
S11319B0EE0FFF1FEA5EF84F118210820895109215
S11319C01707109216071092190710921807109211
S11319D01B0710921A0708951F920F920FB60F92C9
S11319E011240BB60F922F933F934F935F936F93F2
S11319F07F938F939F93AF93BF93EF93FF938091C4
S1131A001C0790911D07009729F0019790931D07DB
S1131A1080931C078091160790911707009739F05F
S1131A2001979093170780931607892B71F1809182
S1131A30180790911907009739F0019790931907A7
S1131A4080931807892B19F180911A0790911B072D
S1131A50009741F0019790931B0780931A07892BF5
S1131A6009F41ADAFF91EF91BF91AF919F918F9191
S1131A707F916F915F914F913F912F910F900BBE8A
S1131A800F900FBE0F901F901895F6DAD0CF26DF77
S1131A90DBCFAA1BBB1B51E107C0AA1FBB1FA617A4
S1131AA0B70710F0A61BB70B881F991F5A95A9F703
S1131AB080959095BC01CD010895EE0FFF1F059010
S10D1AC0F491E02D0994F894FFCF8F
S1131ACA800000F041101612200000202020204837
S1131ADA6172644D50552076302E31202020204AE0
S1131AEAF7000000000000000000000000000000F1
S1131AFA00000000000000000000000000000000D8
S1131B0A00000000000000000000000000000000C7
S1131B1A00000000000000000000000000000000B7
S1131B2A00000000000000000000000000000000A7
S1131B3A0000000000000000000000000000000097
S1131B4A0000000000000000000000000000000087
S1131B5A0000000000000000000000000000000077
S1131B6A000003030303030303030303030303033D
S1131B7A0303030303030303030303030303030327
S1131B8A0303030303030303030303030303030317
S1131B9A0303030303030303030303030303030307
S1131BAA0303020202020202020202020202020205
S1131BBA02020202020202020202020202020202F7
S1131BCA02020303030303030303030303030303D9
S1131BDA03030002030200000100010001010100E5
S1051BEA0100F4
S9030000FC
